{
  "abi": [
    {
      "inputs": [
        {
          "internalType": "address",
          "name": "registry_sc",
          "type": "address"
        }
      ],
      "stateMutability": "nonpayable",
      "type": "constructor"
    },
    {
      "anonymous": false,
      "inputs": [
        {
          "indexed": false,
          "internalType": "address",
          "name": "Registry_sc",
          "type": "address"
        }
      ],
      "name": "DebugRegistryAddress",
      "type": "event"
    },
    {
      "anonymous": false,
      "inputs": [
        {
          "indexed": false,
          "internalType": "bool",
          "name": "value",
          "type": "bool"
        },
        {
          "indexed": false,
          "internalType": "string",
          "name": "result",
          "type": "string"
        }
      ],
      "name": "IsSuccess",
      "type": "event"
    },
    {
      "anonymous": false,
      "inputs": [
        {
          "indexed": false,
          "internalType": "bool",
          "name": "is_exist",
          "type": "bool"
        },
        {
          "components": [
            {
              "internalType": "bytes32",
              "name": "cov_certificate_identifier",
              "type": "bytes32"
            },
            {
              "internalType": "bytes32",
              "name": "certificate_data",
              "type": "bytes32"
            },
            {
              "internalType": "uint256",
              "name": "timestamp",
              "type": "uint256"
            }
          ],
          "indexed": false,
          "internalType": "struct CertificateData.COV_CERTIFICATE",
          "name": "certificate_data",
          "type": "tuple"
        }
      ],
      "name": "certificateExist",
      "type": "event"
    },
    {
      "anonymous": false,
      "inputs": [
        {
          "indexed": false,
          "internalType": "bool",
          "name": "is_exist",
          "type": "bool"
        },
        {
          "components": [
            {
              "internalType": "bytes32",
              "name": "cov_certificate_identifier",
              "type": "bytes32"
            },
            {
              "internalType": "bytes32",
              "name": "certificate_data",
              "type": "bytes32"
            },
            {
              "internalType": "uint256",
              "name": "timestamp",
              "type": "uint256"
            }
          ],
          "indexed": false,
          "internalType": "struct CertificateData.COV_CERTIFICATE[]",
          "name": "certificate_data",
          "type": "tuple[]"
        }
      ],
      "name": "getCertificate",
      "type": "event"
    },
    {
      "anonymous": false,
      "inputs": [
        {
          "indexed": false,
          "internalType": "bool",
          "name": "value",
          "type": "bool"
        }
      ],
      "name": "isFailed",
      "type": "event"
    },
    {
      "anonymous": false,
      "inputs": [
        {
          "indexed": false,
          "internalType": "uint256",
          "name": "timestamp",
          "type": "uint256"
        }
      ],
      "name": "timestampEvent",
      "type": "event"
    },
    {
      "inputs": [],
      "name": "getRegistryAddress",
      "outputs": [
        {
          "internalType": "address",
          "name": "",
          "type": "address"
        }
      ],
      "stateMutability": "view",
      "type": "function"
    }
  ],
  "bytecode": "608060405234801561001057600080fd5b5060405161012238038061012283398101604081905261002f91610062565b60038054336001600160a01b031991821617909155600180549091166001600160a01b0392909216919091179055610092565b60006020828403121561007457600080fd5b81516001600160a01b038116811461008b57600080fd5b9392505050565b6082806100a06000396000f3fe6080604052348015600f57600080fd5b506004361060285760003560e01c8063f21de1e814602d575b600080fd5b600154604080516001600160a01b039092168252519081900360200190f3fea26469706673582212208dfa19f15fe0137348d7121a038ff46cfb0fe88d8c323c879a2316a0f8dd7d3264736f6c63430008070033",
  "bytecodeSha1": "e221ce31298e5a86c36a809b6a42f91836530813",
  "compiler": {
    "evm_version": "istanbul",
    "optimizer": {
      "enabled": true,
      "runs": 200
    },
    "version": "0.8.7+commit.e28d00a7"
  },
  "contractName": "CertificateAuthorization",
  "language": "Solidity",
  "natspec": {
    "kind": "dev",
    "methods": {},
    "version": 1
  },
  "opcodes": "PUSH1 0x80 PUSH1 0x40 MSTORE CALLVALUE DUP1 ISZERO PUSH1 0xF JUMPI PUSH1 0x0 DUP1 REVERT JUMPDEST POP PUSH1 0x4 CALLDATASIZE LT PUSH1 0x28 JUMPI PUSH1 0x0 CALLDATALOAD PUSH1 0xE0 SHR DUP1 PUSH4 0xF21DE1E8 EQ PUSH1 0x2D JUMPI JUMPDEST PUSH1 0x0 DUP1 REVERT JUMPDEST PUSH1 0x1 SLOAD PUSH1 0x40 DUP1 MLOAD PUSH1 0x1 PUSH1 0x1 PUSH1 0xA0 SHL SUB SWAP1 SWAP3 AND DUP3 MSTORE MLOAD SWAP1 DUP2 SWAP1 SUB PUSH1 0x20 ADD SWAP1 RETURN INVALID LOG2 PUSH5 0x6970667358 0x22 SLT KECCAK256 DUP14 STATICCALL NOT CALL 0x5F 0xE0 SGT PUSH20 0x48D7121A038FF46CFB0FE88D8C323C879A2316A0 0xF8 0xDD PUSH30 0x3264736F6C63430008070033000000000000000000000000000000000000 ",
  "sha1": "6bcf35d411628fe488c4135f9c238b13a2a74b52",
  "source": "// SPDX-License-Identifier: MIT\npragma solidity >=0.7.0 <0.9.0;\nimport \"./Helper.sol\";\n\n// this contract provides authorization for certificate smart contract\n\ninterface IssuerData {\n    function checkIssuerExist(address issuer) external returns (bool);\n}\n\ncontract CertificateAuthorization is Helper{\n    address private _Registry;\n    mapping(address => mapping(uint256 => bool)) internal seenNonces;\n\n    //owner mean the one who deployed this contract\n    address payable private owner;\n\n    //constructor will be inherit by child class\n    constructor(address registry_sc) {\n        owner = payable(msg.sender);\n        _Registry = registry_sc;\n    }\n\n    //debugging code\n    event DebugRegistryAddress(\n        address Registry_sc\n    );\n\n    //debugging code\n    function getRegistryAddress()public view returns(address){\n        return _Registry;\n    }\n\n    function checkSignerIsIssuer(address sender) private returns(bool) {\n        return IssuerData(_Registry).checkIssuerExist(sender);\n    }\n\n    modifier grantAccess(){\n        require(checkSignerIsIssuer(msg.sender) == true);\n        _;\n    }\n}",
  "sourcePath": "contracts/Certificate/CertificateAuthorization.sol",
  "type": "contract"
}