{
  "abi": [
    {
      "inputs": [
        {
          "internalType": "address",
          "name": "registrySC",
          "type": "address"
        }
      ],
      "stateMutability": "nonpayable",
      "type": "constructor"
    },
    {
      "anonymous": false,
      "inputs": [
        {
          "indexed": false,
          "internalType": "address",
          "name": "Registry_sc",
          "type": "address"
        }
      ],
      "name": "DebugRegistryAddress",
      "type": "event"
    },
    {
      "anonymous": false,
      "inputs": [
        {
          "indexed": false,
          "internalType": "bool",
          "name": "value",
          "type": "bool"
        },
        {
          "indexed": false,
          "internalType": "string",
          "name": "result",
          "type": "string"
        }
      ],
      "name": "IsSuccess",
      "type": "event"
    },
    {
      "anonymous": false,
      "inputs": [
        {
          "indexed": false,
          "internalType": "bool",
          "name": "is_exist",
          "type": "bool"
        },
        {
          "components": [
            {
              "internalType": "bytes32",
              "name": "cov_hash",
              "type": "bytes32"
            },
            {
              "internalType": "bytes32",
              "name": "data_address",
              "type": "bytes32"
            },
            {
              "internalType": "uint256",
              "name": "timestamp",
              "type": "uint256"
            },
            {
              "internalType": "address",
              "name": "issuer",
              "type": "address"
            }
          ],
          "indexed": false,
          "internalType": "struct Data.COV_CERTIFICATE",
          "name": "certificate_data",
          "type": "tuple"
        }
      ],
      "name": "certificateExist",
      "type": "event"
    },
    {
      "anonymous": false,
      "inputs": [
        {
          "indexed": false,
          "internalType": "bool",
          "name": "value",
          "type": "bool"
        }
      ],
      "name": "isFailed",
      "type": "event"
    },
    {
      "inputs": [],
      "name": "getRegistryAddress",
      "outputs": [
        {
          "internalType": "address",
          "name": "",
          "type": "address"
        }
      ],
      "stateMutability": "view",
      "type": "function"
    },
    {
      "inputs": [
        {
          "internalType": "bytes32",
          "name": "certificate_hash",
          "type": "bytes32"
        },
        {
          "internalType": "bytes32",
          "name": "holder_id",
          "type": "bytes32"
        },
        {
          "internalType": "string",
          "name": "payload",
          "type": "string"
        },
        {
          "internalType": "bytes32",
          "name": "data_address",
          "type": "bytes32"
        }
      ],
      "name": "registerCertificate",
      "outputs": [
        {
          "internalType": "bool",
          "name": "success",
          "type": "bool"
        }
      ],
      "stateMutability": "nonpayable",
      "type": "function"
    },
    {
      "inputs": [
        {
          "internalType": "bytes32",
          "name": "certificate_hash",
          "type": "bytes32"
        },
        {
          "internalType": "bytes32",
          "name": "holder_id",
          "type": "bytes32"
        }
      ],
      "name": "verifyCertificate",
      "outputs": [
        {
          "internalType": "bool",
          "name": "",
          "type": "bool"
        }
      ],
      "stateMutability": "nonpayable",
      "type": "function"
    }
  ],
  "bytecode": "608060405234801561001057600080fd5b5060405161086e38038061086e83398101604081905261002f91610062565b600280546001600160a01b03199081163317909155600080546001600160a01b0390931692909116919091179055610092565b60006020828403121561007457600080fd5b81516001600160a01b038116811461008b57600080fd5b9392505050565b6107cd806100a16000396000f3fe608060405234801561001057600080fd5b50600436106100415760003560e01c806311f3524c146100465780631f75435d1461006e578063f21de1e814610081575b600080fd5b6100596100543660046105ba565b61009c565b60405190151581526020015b60405180910390f35b61005961007c366004610598565b6102b9565b6000546040516001600160a01b039091168152602001610065565b60006100a733610452565b15156001146100b557600080fd5b6000848152600360209081526040808320805482518185028101850190935280835261014b938a93929190869084015b8282101561014257600084815260209081902060408051608081018252600486029092018054835260018082015484860152600282015492840192909252600301546001600160a01b0316606083015290835290920191016100e5565b505050506104d2565b11156101a2576000805160206107788339815191526000604051610192911515815260406020820181905260079082015266616c726561647960c81b606082015260800190565b60405180910390a15060006102b1565b6101ad858486610533565b6101f35760008051602061077883398151915260006040516101929115158152604060208201819052600890820152670ccc2d2d8d0c2e6d60c31b606082015260800190565b60008481526003602081815260408084208151608080820184528b825281850189815242838601908152336060808601918252865460018082018955978c529a89902095516004909b02909501998a55915189860155516002890155519690950180546001600160a01b0319166001600160a01b03909716969096179095558151908152918201819052600690820152651cdd1bdc995960d21b92810192909252600080516020610778833981519152910160405180910390a15060015b949350505050565b6000818152600360209081526040808320805482518185028101850190935280835284936103469388939092909186908401821561014257600084815260209081902060408051608081018252600486029092018054835260018082015484860152600282015492840192909252600301546001600160a01b0316606083015290835290920191016100e5565b905080156103fc5760008381526003602052604090207fcdf631405afda9a82d238101d4a673fa53f947bd014fb050920be8f149acf3e29060019061038b8285610703565b8154811061039b5761039b61074b565b90600052602060002090600402016040516103ea9291909115158252805460208301526001810154604083015260028101546060830152600301546001600160a01b0316608082015260a00190565b60405180910390a1600191505061044c565b600080516020610778833981519152600160405161043e9115158152604060208201819052600890820152671d995c9a599a595960c21b606082015260800190565b60405180910390a160009150505b92915050565b60008054604051631830003560e21b81526001600160a01b038481166004830152909116906360c000d490602401602060405180830381600087803b15801561049a57600080fd5b505af11580156104ae573d6000803e3d6000fd5b505050506040513d601f19601f8201168201806040525081019061044c919061056f565b6000805b825181101561052957838382815181106104f2576104f261074b565b60200260200101516000015114156105175761050f8160016106eb565b91505061044c565b806105218161071a565b9150506104d6565b5060009392505050565b60008082843360405160200161054b93929190610686565b60408051601f19818403018152919052805160209091012085149150509392505050565b60006020828403121561058157600080fd5b8151801515811461059157600080fd5b9392505050565b600080604083850312156105ab57600080fd5b50508035926020909101359150565b600080600080608085870312156105d057600080fd5b8435935060208501359250604085013567ffffffffffffffff808211156105f657600080fd5b818701915087601f83011261060a57600080fd5b81358181111561061c5761061c610761565b604051601f8201601f19908116603f0116810190838211818310171561064457610644610761565b816040528281528a602084870101111561065d57600080fd5b826020860160208301376000928101602001929092525095989497509495606001359450505050565b8381526000835160005b818110156106ac57602081870181015185830182015201610690565b818111156106be576000602083860101525b5060609390931b6bffffffffffffffffffffffff1916602092909301918201929092526034019392505050565b600082198211156106fe576106fe610735565b500190565b60008282101561071557610715610735565b500390565b600060001982141561072e5761072e610735565b5060010190565b634e487b7160e01b600052601160045260246000fd5b634e487b7160e01b600052603260045260246000fd5b634e487b7160e01b600052604160045260246000fdfeb7cdced8c7c4e48fcb5e29e76371e78f62509ff97a6175d44f84ad36252008e4a264697066735822122008178519e2f145d089976175cee6096d2b3ee5d76e2effe12c8f7b851778f6fa64736f6c63430008070033",
  "bytecodeSha1": "3171a398bea65f4b62afc71cecc061c458eb17c1",
  "compiler": {
    "evm_version": "istanbul",
    "optimizer": {
      "enabled": true,
      "runs": 200
    },
    "version": "0.8.7+commit.e28d00a7"
  },
  "contractName": "Certificate",
  "language": "Solidity",
  "natspec": {
    "kind": "dev",
    "methods": {},
    "version": 1
  },
  "opcodes": "PUSH1 0x80 PUSH1 0x40 MSTORE CALLVALUE DUP1 ISZERO PUSH2 0x10 JUMPI PUSH1 0x0 DUP1 REVERT JUMPDEST POP PUSH1 0x4 CALLDATASIZE LT PUSH2 0x41 JUMPI PUSH1 0x0 CALLDATALOAD PUSH1 0xE0 SHR DUP1 PUSH4 0x11F3524C EQ PUSH2 0x46 JUMPI DUP1 PUSH4 0x1F75435D EQ PUSH2 0x6E JUMPI DUP1 PUSH4 0xF21DE1E8 EQ PUSH2 0x81 JUMPI JUMPDEST PUSH1 0x0 DUP1 REVERT JUMPDEST PUSH2 0x59 PUSH2 0x54 CALLDATASIZE PUSH1 0x4 PUSH2 0x5BA JUMP JUMPDEST PUSH2 0x9C JUMP JUMPDEST PUSH1 0x40 MLOAD SWAP1 ISZERO ISZERO DUP2 MSTORE PUSH1 0x20 ADD JUMPDEST PUSH1 0x40 MLOAD DUP1 SWAP2 SUB SWAP1 RETURN JUMPDEST PUSH2 0x59 PUSH2 0x7C CALLDATASIZE PUSH1 0x4 PUSH2 0x598 JUMP JUMPDEST PUSH2 0x2B9 JUMP JUMPDEST PUSH1 0x0 SLOAD PUSH1 0x40 MLOAD PUSH1 0x1 PUSH1 0x1 PUSH1 0xA0 SHL SUB SWAP1 SWAP2 AND DUP2 MSTORE PUSH1 0x20 ADD PUSH2 0x65 JUMP JUMPDEST PUSH1 0x0 PUSH2 0xA7 CALLER PUSH2 0x452 JUMP JUMPDEST ISZERO ISZERO PUSH1 0x1 EQ PUSH2 0xB5 JUMPI PUSH1 0x0 DUP1 REVERT JUMPDEST PUSH1 0x0 DUP5 DUP2 MSTORE PUSH1 0x3 PUSH1 0x20 SWAP1 DUP2 MSTORE PUSH1 0x40 DUP1 DUP4 KECCAK256 DUP1 SLOAD DUP3 MLOAD DUP2 DUP6 MUL DUP2 ADD DUP6 ADD SWAP1 SWAP4 MSTORE DUP1 DUP4 MSTORE PUSH2 0x14B SWAP4 DUP11 SWAP4 SWAP3 SWAP2 SWAP1 DUP7 SWAP1 DUP5 ADD JUMPDEST DUP3 DUP3 LT ISZERO PUSH2 0x142 JUMPI PUSH1 0x0 DUP5 DUP2 MSTORE PUSH1 0x20 SWAP1 DUP2 SWAP1 KECCAK256 PUSH1 0x40 DUP1 MLOAD PUSH1 0x80 DUP2 ADD DUP3 MSTORE PUSH1 0x4 DUP7 MUL SWAP1 SWAP3 ADD DUP1 SLOAD DUP4 MSTORE PUSH1 0x1 DUP1 DUP3 ADD SLOAD DUP5 DUP7 ADD MSTORE PUSH1 0x2 DUP3 ADD SLOAD SWAP3 DUP5 ADD SWAP3 SWAP1 SWAP3 MSTORE PUSH1 0x3 ADD SLOAD PUSH1 0x1 PUSH1 0x1 PUSH1 0xA0 SHL SUB AND PUSH1 0x60 DUP4 ADD MSTORE SWAP1 DUP4 MSTORE SWAP1 SWAP3 ADD SWAP2 ADD PUSH2 0xE5 JUMP JUMPDEST POP POP POP POP PUSH2 0x4D2 JUMP JUMPDEST GT ISZERO PUSH2 0x1A2 JUMPI PUSH1 0x0 DUP1 MLOAD PUSH1 0x20 PUSH2 0x778 DUP4 CODECOPY DUP2 MLOAD SWAP2 MSTORE PUSH1 0x0 PUSH1 0x40 MLOAD PUSH2 0x192 SWAP2 ISZERO ISZERO DUP2 MSTORE PUSH1 0x40 PUSH1 0x20 DUP3 ADD DUP2 SWAP1 MSTORE PUSH1 0x7 SWAP1 DUP3 ADD MSTORE PUSH7 0x616C7265616479 PUSH1 0xC8 SHL PUSH1 0x60 DUP3 ADD MSTORE PUSH1 0x80 ADD SWAP1 JUMP JUMPDEST PUSH1 0x40 MLOAD DUP1 SWAP2 SUB SWAP1 LOG1 POP PUSH1 0x0 PUSH2 0x2B1 JUMP JUMPDEST PUSH2 0x1AD DUP6 DUP5 DUP7 PUSH2 0x533 JUMP JUMPDEST PUSH2 0x1F3 JUMPI PUSH1 0x0 DUP1 MLOAD PUSH1 0x20 PUSH2 0x778 DUP4 CODECOPY DUP2 MLOAD SWAP2 MSTORE PUSH1 0x0 PUSH1 0x40 MLOAD PUSH2 0x192 SWAP2 ISZERO ISZERO DUP2 MSTORE PUSH1 0x40 PUSH1 0x20 DUP3 ADD DUP2 SWAP1 MSTORE PUSH1 0x8 SWAP1 DUP3 ADD MSTORE PUSH8 0xCCC2D2D8D0C2E6D PUSH1 0xC3 SHL PUSH1 0x60 DUP3 ADD MSTORE PUSH1 0x80 ADD SWAP1 JUMP JUMPDEST PUSH1 0x0 DUP5 DUP2 MSTORE PUSH1 0x3 PUSH1 0x20 DUP2 DUP2 MSTORE PUSH1 0x40 DUP1 DUP5 KECCAK256 DUP2 MLOAD PUSH1 0x80 DUP1 DUP3 ADD DUP5 MSTORE DUP12 DUP3 MSTORE DUP2 DUP6 ADD DUP10 DUP2 MSTORE TIMESTAMP DUP4 DUP7 ADD SWAP1 DUP2 MSTORE CALLER PUSH1 0x60 DUP1 DUP7 ADD SWAP2 DUP3 MSTORE DUP7 SLOAD PUSH1 0x1 DUP1 DUP3 ADD DUP10 SSTORE SWAP8 DUP13 MSTORE SWAP11 DUP10 SWAP1 KECCAK256 SWAP6 MLOAD PUSH1 0x4 SWAP1 SWAP12 MUL SWAP1 SWAP6 ADD SWAP10 DUP11 SSTORE SWAP2 MLOAD DUP10 DUP7 ADD SSTORE MLOAD PUSH1 0x2 DUP10 ADD SSTORE MLOAD SWAP7 SWAP1 SWAP6 ADD DUP1 SLOAD PUSH1 0x1 PUSH1 0x1 PUSH1 0xA0 SHL SUB NOT AND PUSH1 0x1 PUSH1 0x1 PUSH1 0xA0 SHL SUB SWAP1 SWAP8 AND SWAP7 SWAP1 SWAP7 OR SWAP1 SWAP6 SSTORE DUP2 MLOAD SWAP1 DUP2 MSTORE SWAP2 DUP3 ADD DUP2 SWAP1 MSTORE PUSH1 0x6 SWAP1 DUP3 ADD MSTORE PUSH6 0x1CDD1BDC9959 PUSH1 0xD2 SHL SWAP3 DUP2 ADD SWAP3 SWAP1 SWAP3 MSTORE PUSH1 0x0 DUP1 MLOAD PUSH1 0x20 PUSH2 0x778 DUP4 CODECOPY DUP2 MLOAD SWAP2 MSTORE SWAP2 ADD PUSH1 0x40 MLOAD DUP1 SWAP2 SUB SWAP1 LOG1 POP PUSH1 0x1 JUMPDEST SWAP5 SWAP4 POP POP POP POP JUMP JUMPDEST PUSH1 0x0 DUP2 DUP2 MSTORE PUSH1 0x3 PUSH1 0x20 SWAP1 DUP2 MSTORE PUSH1 0x40 DUP1 DUP4 KECCAK256 DUP1 SLOAD DUP3 MLOAD DUP2 DUP6 MUL DUP2 ADD DUP6 ADD SWAP1 SWAP4 MSTORE DUP1 DUP4 MSTORE DUP5 SWAP4 PUSH2 0x346 SWAP4 DUP9 SWAP4 SWAP1 SWAP3 SWAP1 SWAP2 DUP7 SWAP1 DUP5 ADD DUP3 ISZERO PUSH2 0x142 JUMPI PUSH1 0x0 DUP5 DUP2 MSTORE PUSH1 0x20 SWAP1 DUP2 SWAP1 KECCAK256 PUSH1 0x40 DUP1 MLOAD PUSH1 0x80 DUP2 ADD DUP3 MSTORE PUSH1 0x4 DUP7 MUL SWAP1 SWAP3 ADD DUP1 SLOAD DUP4 MSTORE PUSH1 0x1 DUP1 DUP3 ADD SLOAD DUP5 DUP7 ADD MSTORE PUSH1 0x2 DUP3 ADD SLOAD SWAP3 DUP5 ADD SWAP3 SWAP1 SWAP3 MSTORE PUSH1 0x3 ADD SLOAD PUSH1 0x1 PUSH1 0x1 PUSH1 0xA0 SHL SUB AND PUSH1 0x60 DUP4 ADD MSTORE SWAP1 DUP4 MSTORE SWAP1 SWAP3 ADD SWAP2 ADD PUSH2 0xE5 JUMP JUMPDEST SWAP1 POP DUP1 ISZERO PUSH2 0x3FC JUMPI PUSH1 0x0 DUP4 DUP2 MSTORE PUSH1 0x3 PUSH1 0x20 MSTORE PUSH1 0x40 SWAP1 KECCAK256 PUSH32 0xCDF631405AFDA9A82D238101D4A673FA53F947BD014FB050920BE8F149ACF3E2 SWAP1 PUSH1 0x1 SWAP1 PUSH2 0x38B DUP3 DUP6 PUSH2 0x703 JUMP JUMPDEST DUP2 SLOAD DUP2 LT PUSH2 0x39B JUMPI PUSH2 0x39B PUSH2 0x74B JUMP JUMPDEST SWAP1 PUSH1 0x0 MSTORE PUSH1 0x20 PUSH1 0x0 KECCAK256 SWAP1 PUSH1 0x4 MUL ADD PUSH1 0x40 MLOAD PUSH2 0x3EA SWAP3 SWAP2 SWAP1 SWAP2 ISZERO ISZERO DUP3 MSTORE DUP1 SLOAD PUSH1 0x20 DUP4 ADD MSTORE PUSH1 0x1 DUP2 ADD SLOAD PUSH1 0x40 DUP4 ADD MSTORE PUSH1 0x2 DUP2 ADD SLOAD PUSH1 0x60 DUP4 ADD MSTORE PUSH1 0x3 ADD SLOAD PUSH1 0x1 PUSH1 0x1 PUSH1 0xA0 SHL SUB AND PUSH1 0x80 DUP3 ADD MSTORE PUSH1 0xA0 ADD SWAP1 JUMP JUMPDEST PUSH1 0x40 MLOAD DUP1 SWAP2 SUB SWAP1 LOG1 PUSH1 0x1 SWAP2 POP POP PUSH2 0x44C JUMP JUMPDEST PUSH1 0x0 DUP1 MLOAD PUSH1 0x20 PUSH2 0x778 DUP4 CODECOPY DUP2 MLOAD SWAP2 MSTORE PUSH1 0x1 PUSH1 0x40 MLOAD PUSH2 0x43E SWAP2 ISZERO ISZERO DUP2 MSTORE PUSH1 0x40 PUSH1 0x20 DUP3 ADD DUP2 SWAP1 MSTORE PUSH1 0x8 SWAP1 DUP3 ADD MSTORE PUSH8 0x1D995C9A599A5959 PUSH1 0xC2 SHL PUSH1 0x60 DUP3 ADD MSTORE PUSH1 0x80 ADD SWAP1 JUMP JUMPDEST PUSH1 0x40 MLOAD DUP1 SWAP2 SUB SWAP1 LOG1 PUSH1 0x0 SWAP2 POP POP JUMPDEST SWAP3 SWAP2 POP POP JUMP JUMPDEST PUSH1 0x0 DUP1 SLOAD PUSH1 0x40 MLOAD PUSH4 0x18300035 PUSH1 0xE2 SHL DUP2 MSTORE PUSH1 0x1 PUSH1 0x1 PUSH1 0xA0 SHL SUB DUP5 DUP2 AND PUSH1 0x4 DUP4 ADD MSTORE SWAP1 SWAP2 AND SWAP1 PUSH4 0x60C000D4 SWAP1 PUSH1 0x24 ADD PUSH1 0x20 PUSH1 0x40 MLOAD DUP1 DUP4 SUB DUP2 PUSH1 0x0 DUP8 DUP1 EXTCODESIZE ISZERO DUP1 ISZERO PUSH2 0x49A JUMPI PUSH1 0x0 DUP1 REVERT JUMPDEST POP GAS CALL ISZERO DUP1 ISZERO PUSH2 0x4AE JUMPI RETURNDATASIZE PUSH1 0x0 DUP1 RETURNDATACOPY RETURNDATASIZE PUSH1 0x0 REVERT JUMPDEST POP POP POP POP PUSH1 0x40 MLOAD RETURNDATASIZE PUSH1 0x1F NOT PUSH1 0x1F DUP3 ADD AND DUP3 ADD DUP1 PUSH1 0x40 MSTORE POP DUP2 ADD SWAP1 PUSH2 0x44C SWAP2 SWAP1 PUSH2 0x56F JUMP JUMPDEST PUSH1 0x0 DUP1 JUMPDEST DUP3 MLOAD DUP2 LT ISZERO PUSH2 0x529 JUMPI DUP4 DUP4 DUP3 DUP2 MLOAD DUP2 LT PUSH2 0x4F2 JUMPI PUSH2 0x4F2 PUSH2 0x74B JUMP JUMPDEST PUSH1 0x20 MUL PUSH1 0x20 ADD ADD MLOAD PUSH1 0x0 ADD MLOAD EQ ISZERO PUSH2 0x517 JUMPI PUSH2 0x50F DUP2 PUSH1 0x1 PUSH2 0x6EB JUMP JUMPDEST SWAP2 POP POP PUSH2 0x44C JUMP JUMPDEST DUP1 PUSH2 0x521 DUP2 PUSH2 0x71A JUMP JUMPDEST SWAP2 POP POP PUSH2 0x4D6 JUMP JUMPDEST POP PUSH1 0x0 SWAP4 SWAP3 POP POP POP JUMP JUMPDEST PUSH1 0x0 DUP1 DUP3 DUP5 CALLER PUSH1 0x40 MLOAD PUSH1 0x20 ADD PUSH2 0x54B SWAP4 SWAP3 SWAP2 SWAP1 PUSH2 0x686 JUMP JUMPDEST PUSH1 0x40 DUP1 MLOAD PUSH1 0x1F NOT DUP2 DUP5 SUB ADD DUP2 MSTORE SWAP2 SWAP1 MSTORE DUP1 MLOAD PUSH1 0x20 SWAP1 SWAP2 ADD KECCAK256 DUP6 EQ SWAP2 POP POP SWAP4 SWAP3 POP POP POP JUMP JUMPDEST PUSH1 0x0 PUSH1 0x20 DUP3 DUP5 SUB SLT ISZERO PUSH2 0x581 JUMPI PUSH1 0x0 DUP1 REVERT JUMPDEST DUP2 MLOAD DUP1 ISZERO ISZERO DUP2 EQ PUSH2 0x591 JUMPI PUSH1 0x0 DUP1 REVERT JUMPDEST SWAP4 SWAP3 POP POP POP JUMP JUMPDEST PUSH1 0x0 DUP1 PUSH1 0x40 DUP4 DUP6 SUB SLT ISZERO PUSH2 0x5AB JUMPI PUSH1 0x0 DUP1 REVERT JUMPDEST POP POP DUP1 CALLDATALOAD SWAP3 PUSH1 0x20 SWAP1 SWAP2 ADD CALLDATALOAD SWAP2 POP JUMP JUMPDEST PUSH1 0x0 DUP1 PUSH1 0x0 DUP1 PUSH1 0x80 DUP6 DUP8 SUB SLT ISZERO PUSH2 0x5D0 JUMPI PUSH1 0x0 DUP1 REVERT JUMPDEST DUP5 CALLDATALOAD SWAP4 POP PUSH1 0x20 DUP6 ADD CALLDATALOAD SWAP3 POP PUSH1 0x40 DUP6 ADD CALLDATALOAD PUSH8 0xFFFFFFFFFFFFFFFF DUP1 DUP3 GT ISZERO PUSH2 0x5F6 JUMPI PUSH1 0x0 DUP1 REVERT JUMPDEST DUP2 DUP8 ADD SWAP2 POP DUP8 PUSH1 0x1F DUP4 ADD SLT PUSH2 0x60A JUMPI PUSH1 0x0 DUP1 REVERT JUMPDEST DUP2 CALLDATALOAD DUP2 DUP2 GT ISZERO PUSH2 0x61C JUMPI PUSH2 0x61C PUSH2 0x761 JUMP JUMPDEST PUSH1 0x40 MLOAD PUSH1 0x1F DUP3 ADD PUSH1 0x1F NOT SWAP1 DUP2 AND PUSH1 0x3F ADD AND DUP2 ADD SWAP1 DUP4 DUP3 GT DUP2 DUP4 LT OR ISZERO PUSH2 0x644 JUMPI PUSH2 0x644 PUSH2 0x761 JUMP JUMPDEST DUP2 PUSH1 0x40 MSTORE DUP3 DUP2 MSTORE DUP11 PUSH1 0x20 DUP5 DUP8 ADD ADD GT ISZERO PUSH2 0x65D JUMPI PUSH1 0x0 DUP1 REVERT JUMPDEST DUP3 PUSH1 0x20 DUP7 ADD PUSH1 0x20 DUP4 ADD CALLDATACOPY PUSH1 0x0 SWAP3 DUP2 ADD PUSH1 0x20 ADD SWAP3 SWAP1 SWAP3 MSTORE POP SWAP6 SWAP9 SWAP5 SWAP8 POP SWAP5 SWAP6 PUSH1 0x60 ADD CALLDATALOAD SWAP5 POP POP POP POP JUMP JUMPDEST DUP4 DUP2 MSTORE PUSH1 0x0 DUP4 MLOAD PUSH1 0x0 JUMPDEST DUP2 DUP2 LT ISZERO PUSH2 0x6AC JUMPI PUSH1 0x20 DUP2 DUP8 ADD DUP2 ADD MLOAD DUP6 DUP4 ADD DUP3 ADD MSTORE ADD PUSH2 0x690 JUMP JUMPDEST DUP2 DUP2 GT ISZERO PUSH2 0x6BE JUMPI PUSH1 0x0 PUSH1 0x20 DUP4 DUP7 ADD ADD MSTORE JUMPDEST POP PUSH1 0x60 SWAP4 SWAP1 SWAP4 SHL PUSH12 0xFFFFFFFFFFFFFFFFFFFFFFFF NOT AND PUSH1 0x20 SWAP3 SWAP1 SWAP4 ADD SWAP2 DUP3 ADD SWAP3 SWAP1 SWAP3 MSTORE PUSH1 0x34 ADD SWAP4 SWAP3 POP POP POP JUMP JUMPDEST PUSH1 0x0 DUP3 NOT DUP3 GT ISZERO PUSH2 0x6FE JUMPI PUSH2 0x6FE PUSH2 0x735 JUMP JUMPDEST POP ADD SWAP1 JUMP JUMPDEST PUSH1 0x0 DUP3 DUP3 LT ISZERO PUSH2 0x715 JUMPI PUSH2 0x715 PUSH2 0x735 JUMP JUMPDEST POP SUB SWAP1 JUMP JUMPDEST PUSH1 0x0 PUSH1 0x0 NOT DUP3 EQ ISZERO PUSH2 0x72E JUMPI PUSH2 0x72E PUSH2 0x735 JUMP JUMPDEST POP PUSH1 0x1 ADD SWAP1 JUMP JUMPDEST PUSH4 0x4E487B71 PUSH1 0xE0 SHL PUSH1 0x0 MSTORE PUSH1 0x11 PUSH1 0x4 MSTORE PUSH1 0x24 PUSH1 0x0 REVERT JUMPDEST PUSH4 0x4E487B71 PUSH1 0xE0 SHL PUSH1 0x0 MSTORE PUSH1 0x32 PUSH1 0x4 MSTORE PUSH1 0x24 PUSH1 0x0 REVERT JUMPDEST PUSH4 0x4E487B71 PUSH1 0xE0 SHL PUSH1 0x0 MSTORE PUSH1 0x41 PUSH1 0x4 MSTORE PUSH1 0x24 PUSH1 0x0 REVERT INVALID 0xB7 0xCD 0xCE 0xD8 0xC7 0xC4 0xE4 DUP16 0xCB 0x5E 0x29 0xE7 PUSH4 0x71E78F62 POP SWAP16 0xF9 PUSH27 0x6175D44F84AD36252008E4A264697066735822122008178519E2F1 GASLIMIT 0xD0 DUP10 SWAP8 PUSH2 0x75CE 0xE6 MULMOD PUSH14 0x2B3EE5D76E2EFFE12C8F7B851778 0xF6 STATICCALL PUSH5 0x736F6C6343 STOP ADDMOD SMOD STOP CALLER ",
  "sha1": "2152a78d06f752cc506ae929e1276a26bc853c41",
  "source": "// SPDX-License-Identifier: MIT\npragma solidity >=0.7.0 <0.9.0;\nimport \"./Handler.sol\";\n\ncontract Certificate is CertificateHandler {\n   constructor(address registrySC) CertificateHandler(registrySC) {}\n}",
  "sourcePath": "contracts/Certificate/Certificate.sol",
  "type": "contract",
  "deployment": {
    "address": "0xF3724Ee95b9e493F9405Ab743D6eFa272cf1b632",
    "chainid": "4",
    "blockHeight": 10477515
  }
}