{
  "abi": [
    {
      "inputs": [
        {
          "internalType": "address",
          "name": "registrySC",
          "type": "address"
        }
      ],
      "stateMutability": "nonpayable",
      "type": "constructor"
    },
    {
      "anonymous": false,
      "inputs": [
        {
          "indexed": false,
          "internalType": "address",
          "name": "Registry_sc",
          "type": "address"
        }
      ],
      "name": "DebugRegistryAddress",
      "type": "event"
    },
    {
      "anonymous": false,
      "inputs": [
        {
          "indexed": false,
          "internalType": "bool",
          "name": "value",
          "type": "bool"
        }
      ],
      "name": "IsSuccess",
      "type": "event"
    },
    {
      "anonymous": false,
      "inputs": [
        {
          "indexed": false,
          "internalType": "bool",
          "name": "is_exist",
          "type": "bool"
        },
        {
          "components": [
            {
              "internalType": "bytes32",
              "name": "cov_hash",
              "type": "bytes32"
            },
            {
              "internalType": "bytes32",
              "name": "data_address",
              "type": "bytes32"
            },
            {
              "internalType": "uint256",
              "name": "timestamp",
              "type": "uint256"
            },
            {
              "internalType": "address",
              "name": "issuer",
              "type": "address"
            }
          ],
          "indexed": false,
          "internalType": "struct Data.COV_CERTIFICATE",
          "name": "certificate_data",
          "type": "tuple"
        }
      ],
      "name": "certificateExist",
      "type": "event"
    },
    {
      "anonymous": false,
      "inputs": [
        {
          "indexed": false,
          "internalType": "bool",
          "name": "value",
          "type": "bool"
        }
      ],
      "name": "isFailed",
      "type": "event"
    },
    {
      "inputs": [],
      "name": "getRegistryAddress",
      "outputs": [
        {
          "internalType": "address",
          "name": "",
          "type": "address"
        }
      ],
      "stateMutability": "view",
      "type": "function"
    },
    {
      "inputs": [
        {
          "internalType": "bytes32",
          "name": "certificate_hash",
          "type": "bytes32"
        },
        {
          "internalType": "bytes32",
          "name": "holder_id",
          "type": "bytes32"
        },
        {
          "internalType": "string",
          "name": "payload",
          "type": "string"
        },
        {
          "internalType": "bytes32",
          "name": "data_address",
          "type": "bytes32"
        }
      ],
      "name": "registerCertificate",
      "outputs": [
        {
          "internalType": "bool",
          "name": "success",
          "type": "bool"
        }
      ],
      "stateMutability": "nonpayable",
      "type": "function"
    },
    {
      "inputs": [
        {
          "internalType": "bytes32",
          "name": "certificate_hash",
          "type": "bytes32"
        },
        {
          "internalType": "bytes32",
          "name": "holder_id",
          "type": "bytes32"
        }
      ],
      "name": "verifyCertificate",
      "outputs": [
        {
          "internalType": "bool",
          "name": "",
          "type": "bool"
        }
      ],
      "stateMutability": "nonpayable",
      "type": "function"
    }
  ],
  "bytecode": "608060405234801561001057600080fd5b506040516107de3803806107de83398101604081905261002f91610062565b600280546001600160a01b03199081163317909155600080546001600160a01b0390931692909116919091179055610092565b60006020828403121561007457600080fd5b81516001600160a01b038116811461008b57600080fd5b9392505050565b61073d806100a16000396000f3fe608060405234801561001057600080fd5b50600436106100415760003560e01c806311f3524c146100465780631f75435d1461006e578063f21de1e814610081575b600080fd5b61005961005436600461052a565b61009c565b60405190151581526020015b60405180910390f35b61005961007c366004610508565b610251565b6000546040516001600160a01b039091168152602001610065565b60006100a7336103c2565b15156001146100b557600080fd5b6000848152600360209081526040808320805482518185028101850190935280835261014b938a93929190869084015b8282101561014257600084815260209081902060408051608081018252600486029092018054835260018082015484860152600282015492840192909252600301546001600160a01b0316606083015290835290920191016100e5565b50505050610442565b111561017c57604051600081526000805160206106e8833981519152906020015b60405180910390a1506000610249565b6101878584866104a3565b6101aa57604051600081526000805160206106e88339815191529060200161016c565b600084815260036020818152604080842081516080810183528a8152808401888152428285019081523360608401908152845460018082018755958a529887902093516004909902909301978855905187840155516002870155519490930180546001600160a01b0319166001600160a01b039095169490941790935591519081526000805160206106e8833981519152910160405180910390a15060015b949350505050565b6000818152600360209081526040808320805482518185028101850190935280835284936102de9388939092909186908401821561014257600084815260209081902060408051608081018252600486029092018054835260018082015484860152600282015492840192909252600301546001600160a01b0316606083015290835290920191016100e5565b905080156103945760008381526003602052604090207fcdf631405afda9a82d238101d4a673fa53f947bd014fb050920be8f149acf3e2906001906103238285610673565b81548110610333576103336106bb565b90600052602060002090600402016040516103829291909115158252805460208301526001810154604083015260028101546060830152600301546001600160a01b0316608082015260a00190565b60405180910390a160019150506103bc565b604051600181526000805160206106e88339815191529060200160405180910390a160009150505b92915050565b60008054604051631830003560e21b81526001600160a01b038481166004830152909116906360c000d490602401602060405180830381600087803b15801561040a57600080fd5b505af115801561041e573d6000803e3d6000fd5b505050506040513d601f19601f820116820180604052508101906103bc91906104df565b6000805b82518110156104995783838281518110610462576104626106bb565b60200260200101516000015114156104875761047f81600161065b565b9150506103bc565b806104918161068a565b915050610446565b5060009392505050565b6000808284336040516020016104bb939291906105f6565b60408051601f19818403018152919052805160209091012085149150509392505050565b6000602082840312156104f157600080fd5b8151801515811461050157600080fd5b9392505050565b6000806040838503121561051b57600080fd5b50508035926020909101359150565b6000806000806080858703121561054057600080fd5b8435935060208501359250604085013567ffffffffffffffff8082111561056657600080fd5b818701915087601f83011261057a57600080fd5b81358181111561058c5761058c6106d1565b604051601f8201601f19908116603f011681019083821181831017156105b4576105b46106d1565b816040528281528a60208487010111156105cd57600080fd5b826020860160208301376000928101602001929092525095989497509495606001359450505050565b8381526000835160005b8181101561061c57602081870181015185830182015201610600565b8181111561062e576000602083860101525b5060609390931b6bffffffffffffffffffffffff1916602092909301918201929092526034019392505050565b6000821982111561066e5761066e6106a5565b500190565b600082821015610685576106856106a5565b500390565b600060001982141561069e5761069e6106a5565b5060010190565b634e487b7160e01b600052601160045260246000fd5b634e487b7160e01b600052603260045260246000fd5b634e487b7160e01b600052604160045260246000fdfe899357e8ac89ca7eae2190bafddf930cd836d0020a780ec15f4d797348ce2db9a264697066735822122088ffc82cd843f72d12a74d10e202c38a589dac956c7a6659bda6ea97ff8e93a164736f6c63430008070033",
  "bytecodeSha1": "b96131dcde3428c2080da6a0c798e8e571bf3254",
  "compiler": {
    "evm_version": "istanbul",
    "optimizer": {
      "enabled": true,
      "runs": 200
    },
    "version": "0.8.7+commit.e28d00a7"
  },
  "contractName": "CertificateHandler",
  "language": "Solidity",
  "natspec": {
    "kind": "dev",
    "methods": {},
    "version": 1
  },
  "opcodes": "PUSH1 0x80 PUSH1 0x40 MSTORE CALLVALUE DUP1 ISZERO PUSH2 0x10 JUMPI PUSH1 0x0 DUP1 REVERT JUMPDEST POP PUSH1 0x4 CALLDATASIZE LT PUSH2 0x41 JUMPI PUSH1 0x0 CALLDATALOAD PUSH1 0xE0 SHR DUP1 PUSH4 0x11F3524C EQ PUSH2 0x46 JUMPI DUP1 PUSH4 0x1F75435D EQ PUSH2 0x6E JUMPI DUP1 PUSH4 0xF21DE1E8 EQ PUSH2 0x81 JUMPI JUMPDEST PUSH1 0x0 DUP1 REVERT JUMPDEST PUSH2 0x59 PUSH2 0x54 CALLDATASIZE PUSH1 0x4 PUSH2 0x52A JUMP JUMPDEST PUSH2 0x9C JUMP JUMPDEST PUSH1 0x40 MLOAD SWAP1 ISZERO ISZERO DUP2 MSTORE PUSH1 0x20 ADD JUMPDEST PUSH1 0x40 MLOAD DUP1 SWAP2 SUB SWAP1 RETURN JUMPDEST PUSH2 0x59 PUSH2 0x7C CALLDATASIZE PUSH1 0x4 PUSH2 0x508 JUMP JUMPDEST PUSH2 0x251 JUMP JUMPDEST PUSH1 0x0 SLOAD PUSH1 0x40 MLOAD PUSH1 0x1 PUSH1 0x1 PUSH1 0xA0 SHL SUB SWAP1 SWAP2 AND DUP2 MSTORE PUSH1 0x20 ADD PUSH2 0x65 JUMP JUMPDEST PUSH1 0x0 PUSH2 0xA7 CALLER PUSH2 0x3C2 JUMP JUMPDEST ISZERO ISZERO PUSH1 0x1 EQ PUSH2 0xB5 JUMPI PUSH1 0x0 DUP1 REVERT JUMPDEST PUSH1 0x0 DUP5 DUP2 MSTORE PUSH1 0x3 PUSH1 0x20 SWAP1 DUP2 MSTORE PUSH1 0x40 DUP1 DUP4 KECCAK256 DUP1 SLOAD DUP3 MLOAD DUP2 DUP6 MUL DUP2 ADD DUP6 ADD SWAP1 SWAP4 MSTORE DUP1 DUP4 MSTORE PUSH2 0x14B SWAP4 DUP11 SWAP4 SWAP3 SWAP2 SWAP1 DUP7 SWAP1 DUP5 ADD JUMPDEST DUP3 DUP3 LT ISZERO PUSH2 0x142 JUMPI PUSH1 0x0 DUP5 DUP2 MSTORE PUSH1 0x20 SWAP1 DUP2 SWAP1 KECCAK256 PUSH1 0x40 DUP1 MLOAD PUSH1 0x80 DUP2 ADD DUP3 MSTORE PUSH1 0x4 DUP7 MUL SWAP1 SWAP3 ADD DUP1 SLOAD DUP4 MSTORE PUSH1 0x1 DUP1 DUP3 ADD SLOAD DUP5 DUP7 ADD MSTORE PUSH1 0x2 DUP3 ADD SLOAD SWAP3 DUP5 ADD SWAP3 SWAP1 SWAP3 MSTORE PUSH1 0x3 ADD SLOAD PUSH1 0x1 PUSH1 0x1 PUSH1 0xA0 SHL SUB AND PUSH1 0x60 DUP4 ADD MSTORE SWAP1 DUP4 MSTORE SWAP1 SWAP3 ADD SWAP2 ADD PUSH2 0xE5 JUMP JUMPDEST POP POP POP POP PUSH2 0x442 JUMP JUMPDEST GT ISZERO PUSH2 0x17C JUMPI PUSH1 0x40 MLOAD PUSH1 0x0 DUP2 MSTORE PUSH1 0x0 DUP1 MLOAD PUSH1 0x20 PUSH2 0x6E8 DUP4 CODECOPY DUP2 MLOAD SWAP2 MSTORE SWAP1 PUSH1 0x20 ADD JUMPDEST PUSH1 0x40 MLOAD DUP1 SWAP2 SUB SWAP1 LOG1 POP PUSH1 0x0 PUSH2 0x249 JUMP JUMPDEST PUSH2 0x187 DUP6 DUP5 DUP7 PUSH2 0x4A3 JUMP JUMPDEST PUSH2 0x1AA JUMPI PUSH1 0x40 MLOAD PUSH1 0x0 DUP2 MSTORE PUSH1 0x0 DUP1 MLOAD PUSH1 0x20 PUSH2 0x6E8 DUP4 CODECOPY DUP2 MLOAD SWAP2 MSTORE SWAP1 PUSH1 0x20 ADD PUSH2 0x16C JUMP JUMPDEST PUSH1 0x0 DUP5 DUP2 MSTORE PUSH1 0x3 PUSH1 0x20 DUP2 DUP2 MSTORE PUSH1 0x40 DUP1 DUP5 KECCAK256 DUP2 MLOAD PUSH1 0x80 DUP2 ADD DUP4 MSTORE DUP11 DUP2 MSTORE DUP1 DUP5 ADD DUP9 DUP2 MSTORE TIMESTAMP DUP3 DUP6 ADD SWAP1 DUP2 MSTORE CALLER PUSH1 0x60 DUP5 ADD SWAP1 DUP2 MSTORE DUP5 SLOAD PUSH1 0x1 DUP1 DUP3 ADD DUP8 SSTORE SWAP6 DUP11 MSTORE SWAP9 DUP8 SWAP1 KECCAK256 SWAP4 MLOAD PUSH1 0x4 SWAP1 SWAP10 MUL SWAP1 SWAP4 ADD SWAP8 DUP9 SSTORE SWAP1 MLOAD DUP8 DUP5 ADD SSTORE MLOAD PUSH1 0x2 DUP8 ADD SSTORE MLOAD SWAP5 SWAP1 SWAP4 ADD DUP1 SLOAD PUSH1 0x1 PUSH1 0x1 PUSH1 0xA0 SHL SUB NOT AND PUSH1 0x1 PUSH1 0x1 PUSH1 0xA0 SHL SUB SWAP1 SWAP6 AND SWAP5 SWAP1 SWAP5 OR SWAP1 SWAP4 SSTORE SWAP2 MLOAD SWAP1 DUP2 MSTORE PUSH1 0x0 DUP1 MLOAD PUSH1 0x20 PUSH2 0x6E8 DUP4 CODECOPY DUP2 MLOAD SWAP2 MSTORE SWAP2 ADD PUSH1 0x40 MLOAD DUP1 SWAP2 SUB SWAP1 LOG1 POP PUSH1 0x1 JUMPDEST SWAP5 SWAP4 POP POP POP POP JUMP JUMPDEST PUSH1 0x0 DUP2 DUP2 MSTORE PUSH1 0x3 PUSH1 0x20 SWAP1 DUP2 MSTORE PUSH1 0x40 DUP1 DUP4 KECCAK256 DUP1 SLOAD DUP3 MLOAD DUP2 DUP6 MUL DUP2 ADD DUP6 ADD SWAP1 SWAP4 MSTORE DUP1 DUP4 MSTORE DUP5 SWAP4 PUSH2 0x2DE SWAP4 DUP9 SWAP4 SWAP1 SWAP3 SWAP1 SWAP2 DUP7 SWAP1 DUP5 ADD DUP3 ISZERO PUSH2 0x142 JUMPI PUSH1 0x0 DUP5 DUP2 MSTORE PUSH1 0x20 SWAP1 DUP2 SWAP1 KECCAK256 PUSH1 0x40 DUP1 MLOAD PUSH1 0x80 DUP2 ADD DUP3 MSTORE PUSH1 0x4 DUP7 MUL SWAP1 SWAP3 ADD DUP1 SLOAD DUP4 MSTORE PUSH1 0x1 DUP1 DUP3 ADD SLOAD DUP5 DUP7 ADD MSTORE PUSH1 0x2 DUP3 ADD SLOAD SWAP3 DUP5 ADD SWAP3 SWAP1 SWAP3 MSTORE PUSH1 0x3 ADD SLOAD PUSH1 0x1 PUSH1 0x1 PUSH1 0xA0 SHL SUB AND PUSH1 0x60 DUP4 ADD MSTORE SWAP1 DUP4 MSTORE SWAP1 SWAP3 ADD SWAP2 ADD PUSH2 0xE5 JUMP JUMPDEST SWAP1 POP DUP1 ISZERO PUSH2 0x394 JUMPI PUSH1 0x0 DUP4 DUP2 MSTORE PUSH1 0x3 PUSH1 0x20 MSTORE PUSH1 0x40 SWAP1 KECCAK256 PUSH32 0xCDF631405AFDA9A82D238101D4A673FA53F947BD014FB050920BE8F149ACF3E2 SWAP1 PUSH1 0x1 SWAP1 PUSH2 0x323 DUP3 DUP6 PUSH2 0x673 JUMP JUMPDEST DUP2 SLOAD DUP2 LT PUSH2 0x333 JUMPI PUSH2 0x333 PUSH2 0x6BB JUMP JUMPDEST SWAP1 PUSH1 0x0 MSTORE PUSH1 0x20 PUSH1 0x0 KECCAK256 SWAP1 PUSH1 0x4 MUL ADD PUSH1 0x40 MLOAD PUSH2 0x382 SWAP3 SWAP2 SWAP1 SWAP2 ISZERO ISZERO DUP3 MSTORE DUP1 SLOAD PUSH1 0x20 DUP4 ADD MSTORE PUSH1 0x1 DUP2 ADD SLOAD PUSH1 0x40 DUP4 ADD MSTORE PUSH1 0x2 DUP2 ADD SLOAD PUSH1 0x60 DUP4 ADD MSTORE PUSH1 0x3 ADD SLOAD PUSH1 0x1 PUSH1 0x1 PUSH1 0xA0 SHL SUB AND PUSH1 0x80 DUP3 ADD MSTORE PUSH1 0xA0 ADD SWAP1 JUMP JUMPDEST PUSH1 0x40 MLOAD DUP1 SWAP2 SUB SWAP1 LOG1 PUSH1 0x1 SWAP2 POP POP PUSH2 0x3BC JUMP JUMPDEST PUSH1 0x40 MLOAD PUSH1 0x1 DUP2 MSTORE PUSH1 0x0 DUP1 MLOAD PUSH1 0x20 PUSH2 0x6E8 DUP4 CODECOPY DUP2 MLOAD SWAP2 MSTORE SWAP1 PUSH1 0x20 ADD PUSH1 0x40 MLOAD DUP1 SWAP2 SUB SWAP1 LOG1 PUSH1 0x0 SWAP2 POP POP JUMPDEST SWAP3 SWAP2 POP POP JUMP JUMPDEST PUSH1 0x0 DUP1 SLOAD PUSH1 0x40 MLOAD PUSH4 0x18300035 PUSH1 0xE2 SHL DUP2 MSTORE PUSH1 0x1 PUSH1 0x1 PUSH1 0xA0 SHL SUB DUP5 DUP2 AND PUSH1 0x4 DUP4 ADD MSTORE SWAP1 SWAP2 AND SWAP1 PUSH4 0x60C000D4 SWAP1 PUSH1 0x24 ADD PUSH1 0x20 PUSH1 0x40 MLOAD DUP1 DUP4 SUB DUP2 PUSH1 0x0 DUP8 DUP1 EXTCODESIZE ISZERO DUP1 ISZERO PUSH2 0x40A JUMPI PUSH1 0x0 DUP1 REVERT JUMPDEST POP GAS CALL ISZERO DUP1 ISZERO PUSH2 0x41E JUMPI RETURNDATASIZE PUSH1 0x0 DUP1 RETURNDATACOPY RETURNDATASIZE PUSH1 0x0 REVERT JUMPDEST POP POP POP POP PUSH1 0x40 MLOAD RETURNDATASIZE PUSH1 0x1F NOT PUSH1 0x1F DUP3 ADD AND DUP3 ADD DUP1 PUSH1 0x40 MSTORE POP DUP2 ADD SWAP1 PUSH2 0x3BC SWAP2 SWAP1 PUSH2 0x4DF JUMP JUMPDEST PUSH1 0x0 DUP1 JUMPDEST DUP3 MLOAD DUP2 LT ISZERO PUSH2 0x499 JUMPI DUP4 DUP4 DUP3 DUP2 MLOAD DUP2 LT PUSH2 0x462 JUMPI PUSH2 0x462 PUSH2 0x6BB JUMP JUMPDEST PUSH1 0x20 MUL PUSH1 0x20 ADD ADD MLOAD PUSH1 0x0 ADD MLOAD EQ ISZERO PUSH2 0x487 JUMPI PUSH2 0x47F DUP2 PUSH1 0x1 PUSH2 0x65B JUMP JUMPDEST SWAP2 POP POP PUSH2 0x3BC JUMP JUMPDEST DUP1 PUSH2 0x491 DUP2 PUSH2 0x68A JUMP JUMPDEST SWAP2 POP POP PUSH2 0x446 JUMP JUMPDEST POP PUSH1 0x0 SWAP4 SWAP3 POP POP POP JUMP JUMPDEST PUSH1 0x0 DUP1 DUP3 DUP5 CALLER PUSH1 0x40 MLOAD PUSH1 0x20 ADD PUSH2 0x4BB SWAP4 SWAP3 SWAP2 SWAP1 PUSH2 0x5F6 JUMP JUMPDEST PUSH1 0x40 DUP1 MLOAD PUSH1 0x1F NOT DUP2 DUP5 SUB ADD DUP2 MSTORE SWAP2 SWAP1 MSTORE DUP1 MLOAD PUSH1 0x20 SWAP1 SWAP2 ADD KECCAK256 DUP6 EQ SWAP2 POP POP SWAP4 SWAP3 POP POP POP JUMP JUMPDEST PUSH1 0x0 PUSH1 0x20 DUP3 DUP5 SUB SLT ISZERO PUSH2 0x4F1 JUMPI PUSH1 0x0 DUP1 REVERT JUMPDEST DUP2 MLOAD DUP1 ISZERO ISZERO DUP2 EQ PUSH2 0x501 JUMPI PUSH1 0x0 DUP1 REVERT JUMPDEST SWAP4 SWAP3 POP POP POP JUMP JUMPDEST PUSH1 0x0 DUP1 PUSH1 0x40 DUP4 DUP6 SUB SLT ISZERO PUSH2 0x51B JUMPI PUSH1 0x0 DUP1 REVERT JUMPDEST POP POP DUP1 CALLDATALOAD SWAP3 PUSH1 0x20 SWAP1 SWAP2 ADD CALLDATALOAD SWAP2 POP JUMP JUMPDEST PUSH1 0x0 DUP1 PUSH1 0x0 DUP1 PUSH1 0x80 DUP6 DUP8 SUB SLT ISZERO PUSH2 0x540 JUMPI PUSH1 0x0 DUP1 REVERT JUMPDEST DUP5 CALLDATALOAD SWAP4 POP PUSH1 0x20 DUP6 ADD CALLDATALOAD SWAP3 POP PUSH1 0x40 DUP6 ADD CALLDATALOAD PUSH8 0xFFFFFFFFFFFFFFFF DUP1 DUP3 GT ISZERO PUSH2 0x566 JUMPI PUSH1 0x0 DUP1 REVERT JUMPDEST DUP2 DUP8 ADD SWAP2 POP DUP8 PUSH1 0x1F DUP4 ADD SLT PUSH2 0x57A JUMPI PUSH1 0x0 DUP1 REVERT JUMPDEST DUP2 CALLDATALOAD DUP2 DUP2 GT ISZERO PUSH2 0x58C JUMPI PUSH2 0x58C PUSH2 0x6D1 JUMP JUMPDEST PUSH1 0x40 MLOAD PUSH1 0x1F DUP3 ADD PUSH1 0x1F NOT SWAP1 DUP2 AND PUSH1 0x3F ADD AND DUP2 ADD SWAP1 DUP4 DUP3 GT DUP2 DUP4 LT OR ISZERO PUSH2 0x5B4 JUMPI PUSH2 0x5B4 PUSH2 0x6D1 JUMP JUMPDEST DUP2 PUSH1 0x40 MSTORE DUP3 DUP2 MSTORE DUP11 PUSH1 0x20 DUP5 DUP8 ADD ADD GT ISZERO PUSH2 0x5CD JUMPI PUSH1 0x0 DUP1 REVERT JUMPDEST DUP3 PUSH1 0x20 DUP7 ADD PUSH1 0x20 DUP4 ADD CALLDATACOPY PUSH1 0x0 SWAP3 DUP2 ADD PUSH1 0x20 ADD SWAP3 SWAP1 SWAP3 MSTORE POP SWAP6 SWAP9 SWAP5 SWAP8 POP SWAP5 SWAP6 PUSH1 0x60 ADD CALLDATALOAD SWAP5 POP POP POP POP JUMP JUMPDEST DUP4 DUP2 MSTORE PUSH1 0x0 DUP4 MLOAD PUSH1 0x0 JUMPDEST DUP2 DUP2 LT ISZERO PUSH2 0x61C JUMPI PUSH1 0x20 DUP2 DUP8 ADD DUP2 ADD MLOAD DUP6 DUP4 ADD DUP3 ADD MSTORE ADD PUSH2 0x600 JUMP JUMPDEST DUP2 DUP2 GT ISZERO PUSH2 0x62E JUMPI PUSH1 0x0 PUSH1 0x20 DUP4 DUP7 ADD ADD MSTORE JUMPDEST POP PUSH1 0x60 SWAP4 SWAP1 SWAP4 SHL PUSH12 0xFFFFFFFFFFFFFFFFFFFFFFFF NOT AND PUSH1 0x20 SWAP3 SWAP1 SWAP4 ADD SWAP2 DUP3 ADD SWAP3 SWAP1 SWAP3 MSTORE PUSH1 0x34 ADD SWAP4 SWAP3 POP POP POP JUMP JUMPDEST PUSH1 0x0 DUP3 NOT DUP3 GT ISZERO PUSH2 0x66E JUMPI PUSH2 0x66E PUSH2 0x6A5 JUMP JUMPDEST POP ADD SWAP1 JUMP JUMPDEST PUSH1 0x0 DUP3 DUP3 LT ISZERO PUSH2 0x685 JUMPI PUSH2 0x685 PUSH2 0x6A5 JUMP JUMPDEST POP SUB SWAP1 JUMP JUMPDEST PUSH1 0x0 PUSH1 0x0 NOT DUP3 EQ ISZERO PUSH2 0x69E JUMPI PUSH2 0x69E PUSH2 0x6A5 JUMP JUMPDEST POP PUSH1 0x1 ADD SWAP1 JUMP JUMPDEST PUSH4 0x4E487B71 PUSH1 0xE0 SHL PUSH1 0x0 MSTORE PUSH1 0x11 PUSH1 0x4 MSTORE PUSH1 0x24 PUSH1 0x0 REVERT JUMPDEST PUSH4 0x4E487B71 PUSH1 0xE0 SHL PUSH1 0x0 MSTORE PUSH1 0x32 PUSH1 0x4 MSTORE PUSH1 0x24 PUSH1 0x0 REVERT JUMPDEST PUSH4 0x4E487B71 PUSH1 0xE0 SHL PUSH1 0x0 MSTORE PUSH1 0x41 PUSH1 0x4 MSTORE PUSH1 0x24 PUSH1 0x0 REVERT INVALID DUP10 SWAP4 JUMPI 0xE8 0xAC DUP10 0xCA PUSH31 0xAE2190BAFDDF930CD836D0020A780EC15F4D797348CE2DB9A2646970667358 0x22 SLT KECCAK256 DUP9 SELFDESTRUCT 0xC8 0x2C 0xD8 NUMBER 0xF7 0x2D SLT 0xA7 0x4D LT 0xE2 MUL 0xC3 DUP11 PC SWAP14 0xAC SWAP6 PUSH13 0x7A6659BDA6EA97FF8E93A16473 PUSH16 0x6C634300080700330000000000000000 ",
  "sha1": "7d502e917377ec4a63b44ab97585225bace103a0",
  "source": "// SPDX-License-Identifier: MIT\npragma solidity >=0.7.0 <0.9.0;\n\nimport \"./CertificateAuthorization.sol\";\nimport \"./Helper.sol\";\n\ncontract CertificateHandler is CertificateAuthorization, Helper {\n\n    constructor(address registrySC) CertificateAuthorization(registrySC){}\n    \n    function registerCertificate(\n        bytes32 certificate_hash, \n        bytes32 holder_id,\n        string memory payload,\n        bytes32 data_address\n    )\n        public\n        grantAccess\n        returns (bool success)\n    {\n        if (\n            isCertificateExist(certificate_hash, holder_to_certificates[holder_id]) > 0\n        ) {\n            emit IsSuccess(false);\n            return false;\n        } else {\n            if (!compareHash(certificate_hash, payload, holder_id)){\n                emit IsSuccess(false);\n                return false;\n            }\n            holder_to_certificates[holder_id].push(\n            COV_CERTIFICATE(certificate_hash,data_address,block.timestamp,msg.sender));\n            emit IsSuccess(true);\n            return true;\n        }\n    }\n\n    function verifyCertificate(bytes32 certificate_hash,bytes32 holder_id) public returns(bool){\n        uint256 index = isCertificateExist(certificate_hash, holder_to_certificates[holder_id]);\n        if(index>0){\n            emit certificateExist(\n                true,\n                holder_to_certificates[holder_id][index-1]\n            );\n            return true;\n        }\n        emit IsSuccess(true);\n        return false;\n    }\n\n\n}",
  "sourcePath": "contracts/Certificate/Handler.sol",
  "type": "contract"
}