{
  "abi": [
    {
      "inputs": [
        {
          "internalType": "address",
          "name": "registrySC",
          "type": "address"
        }
      ],
      "stateMutability": "nonpayable",
      "type": "constructor"
    },
    {
      "anonymous": false,
      "inputs": [
        {
          "indexed": false,
          "internalType": "address",
          "name": "Registry_sc",
          "type": "address"
        }
      ],
      "name": "DebugRegistryAddress",
      "type": "event"
    },
    {
      "anonymous": false,
      "inputs": [
        {
          "indexed": false,
          "internalType": "bool",
          "name": "value",
          "type": "bool"
        },
        {
          "indexed": false,
          "internalType": "string",
          "name": "result",
          "type": "string"
        }
      ],
      "name": "IsSuccess",
      "type": "event"
    },
    {
      "anonymous": false,
      "inputs": [
        {
          "indexed": false,
          "internalType": "bool",
          "name": "is_exist",
          "type": "bool"
        },
        {
          "components": [
            {
              "internalType": "bytes32",
              "name": "cov_certificate_identifier",
              "type": "bytes32"
            },
            {
              "internalType": "bytes32",
              "name": "certificate_data",
              "type": "bytes32"
            },
            {
              "internalType": "uint256",
              "name": "timestamp",
              "type": "uint256"
            }
          ],
          "indexed": false,
          "internalType": "struct CertificateData.COV_CERTIFICATE",
          "name": "certificate_data",
          "type": "tuple"
        }
      ],
      "name": "certificateExist",
      "type": "event"
    },
    {
      "anonymous": false,
      "inputs": [
        {
          "indexed": false,
          "internalType": "bool",
          "name": "is_exist",
          "type": "bool"
        },
        {
          "components": [
            {
              "internalType": "bytes32",
              "name": "cov_certificate_identifier",
              "type": "bytes32"
            },
            {
              "internalType": "bytes32",
              "name": "certificate_data",
              "type": "bytes32"
            },
            {
              "internalType": "uint256",
              "name": "timestamp",
              "type": "uint256"
            }
          ],
          "indexed": false,
          "internalType": "struct CertificateData.COV_CERTIFICATE[]",
          "name": "certificate_data",
          "type": "tuple[]"
        }
      ],
      "name": "getCertificate",
      "type": "event"
    },
    {
      "anonymous": false,
      "inputs": [
        {
          "indexed": false,
          "internalType": "bool",
          "name": "value",
          "type": "bool"
        }
      ],
      "name": "isFailed",
      "type": "event"
    },
    {
      "anonymous": false,
      "inputs": [
        {
          "indexed": false,
          "internalType": "uint256",
          "name": "timestamp",
          "type": "uint256"
        }
      ],
      "name": "timestampEvent",
      "type": "event"
    },
    {
      "inputs": [
        {
          "internalType": "bytes32",
          "name": "holder_id",
          "type": "bytes32"
        }
      ],
      "name": "getCertificatesByUser",
      "outputs": [
        {
          "components": [
            {
              "internalType": "bytes32",
              "name": "cov_certificate_identifier",
              "type": "bytes32"
            },
            {
              "internalType": "bytes32",
              "name": "certificate_data",
              "type": "bytes32"
            },
            {
              "internalType": "uint256",
              "name": "timestamp",
              "type": "uint256"
            }
          ],
          "internalType": "struct CertificateData.COV_CERTIFICATE[]",
          "name": "certificate_data",
          "type": "tuple[]"
        }
      ],
      "stateMutability": "view",
      "type": "function"
    },
    {
      "inputs": [],
      "name": "getRegistryAddress",
      "outputs": [
        {
          "internalType": "address",
          "name": "",
          "type": "address"
        }
      ],
      "stateMutability": "view",
      "type": "function"
    },
    {
      "inputs": [
        {
          "internalType": "bytes32",
          "name": "certificate_hash",
          "type": "bytes32"
        },
        {
          "internalType": "bytes32",
          "name": "holder_id",
          "type": "bytes32"
        },
        {
          "internalType": "bytes32",
          "name": "data_address",
          "type": "bytes32"
        }
      ],
      "name": "registerCertificate",
      "outputs": [
        {
          "internalType": "bool",
          "name": "success",
          "type": "bool"
        }
      ],
      "stateMutability": "nonpayable",
      "type": "function"
    },
    {
      "inputs": [
        {
          "internalType": "bytes32",
          "name": "certificate_hash",
          "type": "bytes32"
        },
        {
          "internalType": "bytes32",
          "name": "holder_id",
          "type": "bytes32"
        }
      ],
      "name": "verifyCertificate",
      "outputs": [
        {
          "internalType": "bool",
          "name": "",
          "type": "bool"
        },
        {
          "components": [
            {
              "internalType": "bytes32",
              "name": "cov_certificate_identifier",
              "type": "bytes32"
            },
            {
              "internalType": "bytes32",
              "name": "certificate_data",
              "type": "bytes32"
            },
            {
              "internalType": "uint256",
              "name": "timestamp",
              "type": "uint256"
            }
          ],
          "internalType": "struct CertificateData.COV_CERTIFICATE",
          "name": "",
          "type": "tuple"
        }
      ],
      "stateMutability": "view",
      "type": "function"
    }
  ],
  "bytecode": "608060405234801561001057600080fd5b506040516108c33803806108c383398101604081905261002f91610062565b600380546001600160a01b03199081163317909155600180546001600160a01b0390931692909116919091179055610092565b60006020828403121561007457600080fd5b81516001600160a01b038116811461008b57600080fd5b9392505050565b610822806100a16000396000f3fe608060405234801561001057600080fd5b506004361061004c5760003560e01c80631f75435d1461005157806354ca51db1461007b578063d58640311461009b578063f21de1e8146100be575b600080fd5b61006461005f36600461069c565b6100d9565b60405161007292919061074c565b60405180910390f35b61008e610089366004610683565b610270565b60405161007291906106ea565b6100ae6100a93660046106be565b6102f7565b6040519015158152602001610072565b6001546040516001600160a01b039091168152602001610072565b60408051606081018252600080825260208201819052918101829052600083815260208181526040808320805482518185028101850190935280835261017c938993929190869084015b828210156101735783829060005260206000209060030201604051806060016040529081600082015481526020016001820154815260200160028201548152505081526020019060010190610123565b50505050610583565b9050600061018b60018361078e565b11156102005760008481526020819052604090206001906101ac828461078e565b815481106101bc576101bc6107d6565b906000526020600020906003020180604051806060016040529081600082015481526020016001820154815260200160028201548152505090509250925050610269565b600084815260208190526040812061021960018461078e565b81548110610229576102296107d6565b9060005260206000209060030201806040518060600160405290816000820154815260200160018201548152602001600282015481525050905092509250505b9250929050565b600081815260208181526040808320805482518185028101850190935280835260609492939192909184015b828210156102ec578382906000526020600020906003020160405180606001604052908160008201548152602001600182015481526020016002820154815250508152602001906001019061029c565b505050509050919050565b6000610302336105e6565b151560011461031057600080fd5b600083815260208181526040808320805482518185028101850190935280835261038b9389939291908690840182156101735783829060005260206000209060030201604051806060016040529081600082015481526020016001820154815260200160028201548152505081526020019060010190610123565b9050600061039a60018361078e565b1115610496577fb7cdced8c7c4e48fcb5e29e76371e78f62509ff97a6175d44f84ad36252008e460006040516103f3911515815260406020820181905260079082015266616c726561647960c81b606082015260800190565b60405180910390a160008481526020819052604090207fccc0c5d3c89cfcf7d56826ec7ef2aebe60e5dfe931762fef6892936d105549b790600190610438828561078e565b81548110610448576104486107d6565b90600052602060002090600302016040516104849291909115158252805460208301526001810154604083015260020154606082015260800190565b60405180910390a1600091505061057c565b600084815260208181526040808320815160608101835289815280840188815242828501818152845460018181018755958952969097209251600390960290920194855551848301559351600290930192909255517fb7cdced8c7c4e48fcb5e29e76371e78f62509ff97a6175d44f84ad36252008e49161053a919015158152604060208201819052600690820152651cdd1bdc995960d21b606082015260800190565b60405180910390a16040518181527fb776f27e2626443cee65f6c6f97999f4a5c737555723bdd3513a565406a61fed9060200160405180910390a16001925050505b9392505050565b6000805b82518110156105da57838382815181106105a3576105a36107d6565b60200260200101516000015114156105c8576105c0816001610776565b9150506105e0565b806105d2816107a5565b915050610587565b50600190505b92915050565b600154604051633aa3a01560e11b81526001600160a01b0383811660048301526000921690637547402a90602401602060405180830381600087803b15801561062e57600080fd5b505af1158015610642573d6000803e3d6000fd5b505050506040513d601f19601f820116820180604052508101906105e0919060006020828403121561067357600080fd5b8151801515811461057c57600080fd5b60006020828403121561069557600080fd5b5035919050565b600080604083850312156106af57600080fd5b50508035926020909101359150565b6000806000606084860312156106d357600080fd5b505081359360208301359350604090920135919050565b6020808252825182820181905260009190848201906040850190845b818110156107405761072d8385518051825260208082015190830152604090810151910152565b9284019260609290920191600101610706565b50909695505050505050565b82151581526080810161057c60208301848051825260208082015190830152604090810151910152565b60008219821115610789576107896107c0565b500190565b6000828210156107a0576107a06107c0565b500390565b60006000198214156107b9576107b96107c0565b5060010190565b634e487b7160e01b600052601160045260246000fd5b634e487b7160e01b600052603260045260246000fdfea2646970667358221220b4f57507a4a415a149a971d1209fae414c3ea3ff652eb00098d4333e5a423eb264736f6c63430008070033",
  "bytecodeSha1": "e3b11d31a3dd37dbc8be26a1d945ead8c3bbe156",
  "compiler": {
    "evm_version": "istanbul",
    "optimizer": {
      "enabled": true,
      "runs": 200
    },
    "version": "0.8.7+commit.e28d00a7"
  },
  "contractName": "CertificateRegistry",
  "language": "Solidity",
  "natspec": {
    "kind": "dev",
    "methods": {},
    "version": 1
  },
  "opcodes": "PUSH1 0x80 PUSH1 0x40 MSTORE CALLVALUE DUP1 ISZERO PUSH2 0x10 JUMPI PUSH1 0x0 DUP1 REVERT JUMPDEST POP PUSH1 0x4 CALLDATASIZE LT PUSH2 0x4C JUMPI PUSH1 0x0 CALLDATALOAD PUSH1 0xE0 SHR DUP1 PUSH4 0x1F75435D EQ PUSH2 0x51 JUMPI DUP1 PUSH4 0x54CA51DB EQ PUSH2 0x7B JUMPI DUP1 PUSH4 0xD5864031 EQ PUSH2 0x9B JUMPI DUP1 PUSH4 0xF21DE1E8 EQ PUSH2 0xBE JUMPI JUMPDEST PUSH1 0x0 DUP1 REVERT JUMPDEST PUSH2 0x64 PUSH2 0x5F CALLDATASIZE PUSH1 0x4 PUSH2 0x69C JUMP JUMPDEST PUSH2 0xD9 JUMP JUMPDEST PUSH1 0x40 MLOAD PUSH2 0x72 SWAP3 SWAP2 SWAP1 PUSH2 0x74C JUMP JUMPDEST PUSH1 0x40 MLOAD DUP1 SWAP2 SUB SWAP1 RETURN JUMPDEST PUSH2 0x8E PUSH2 0x89 CALLDATASIZE PUSH1 0x4 PUSH2 0x683 JUMP JUMPDEST PUSH2 0x270 JUMP JUMPDEST PUSH1 0x40 MLOAD PUSH2 0x72 SWAP2 SWAP1 PUSH2 0x6EA JUMP JUMPDEST PUSH2 0xAE PUSH2 0xA9 CALLDATASIZE PUSH1 0x4 PUSH2 0x6BE JUMP JUMPDEST PUSH2 0x2F7 JUMP JUMPDEST PUSH1 0x40 MLOAD SWAP1 ISZERO ISZERO DUP2 MSTORE PUSH1 0x20 ADD PUSH2 0x72 JUMP JUMPDEST PUSH1 0x1 SLOAD PUSH1 0x40 MLOAD PUSH1 0x1 PUSH1 0x1 PUSH1 0xA0 SHL SUB SWAP1 SWAP2 AND DUP2 MSTORE PUSH1 0x20 ADD PUSH2 0x72 JUMP JUMPDEST PUSH1 0x40 DUP1 MLOAD PUSH1 0x60 DUP2 ADD DUP3 MSTORE PUSH1 0x0 DUP1 DUP3 MSTORE PUSH1 0x20 DUP3 ADD DUP2 SWAP1 MSTORE SWAP2 DUP2 ADD DUP3 SWAP1 MSTORE PUSH1 0x0 DUP4 DUP2 MSTORE PUSH1 0x20 DUP2 DUP2 MSTORE PUSH1 0x40 DUP1 DUP4 KECCAK256 DUP1 SLOAD DUP3 MLOAD DUP2 DUP6 MUL DUP2 ADD DUP6 ADD SWAP1 SWAP4 MSTORE DUP1 DUP4 MSTORE PUSH2 0x17C SWAP4 DUP10 SWAP4 SWAP3 SWAP2 SWAP1 DUP7 SWAP1 DUP5 ADD JUMPDEST DUP3 DUP3 LT ISZERO PUSH2 0x173 JUMPI DUP4 DUP3 SWAP1 PUSH1 0x0 MSTORE PUSH1 0x20 PUSH1 0x0 KECCAK256 SWAP1 PUSH1 0x3 MUL ADD PUSH1 0x40 MLOAD DUP1 PUSH1 0x60 ADD PUSH1 0x40 MSTORE SWAP1 DUP2 PUSH1 0x0 DUP3 ADD SLOAD DUP2 MSTORE PUSH1 0x20 ADD PUSH1 0x1 DUP3 ADD SLOAD DUP2 MSTORE PUSH1 0x20 ADD PUSH1 0x2 DUP3 ADD SLOAD DUP2 MSTORE POP POP DUP2 MSTORE PUSH1 0x20 ADD SWAP1 PUSH1 0x1 ADD SWAP1 PUSH2 0x123 JUMP JUMPDEST POP POP POP POP PUSH2 0x583 JUMP JUMPDEST SWAP1 POP PUSH1 0x0 PUSH2 0x18B PUSH1 0x1 DUP4 PUSH2 0x78E JUMP JUMPDEST GT ISZERO PUSH2 0x200 JUMPI PUSH1 0x0 DUP5 DUP2 MSTORE PUSH1 0x20 DUP2 SWAP1 MSTORE PUSH1 0x40 SWAP1 KECCAK256 PUSH1 0x1 SWAP1 PUSH2 0x1AC DUP3 DUP5 PUSH2 0x78E JUMP JUMPDEST DUP2 SLOAD DUP2 LT PUSH2 0x1BC JUMPI PUSH2 0x1BC PUSH2 0x7D6 JUMP JUMPDEST SWAP1 PUSH1 0x0 MSTORE PUSH1 0x20 PUSH1 0x0 KECCAK256 SWAP1 PUSH1 0x3 MUL ADD DUP1 PUSH1 0x40 MLOAD DUP1 PUSH1 0x60 ADD PUSH1 0x40 MSTORE SWAP1 DUP2 PUSH1 0x0 DUP3 ADD SLOAD DUP2 MSTORE PUSH1 0x20 ADD PUSH1 0x1 DUP3 ADD SLOAD DUP2 MSTORE PUSH1 0x20 ADD PUSH1 0x2 DUP3 ADD SLOAD DUP2 MSTORE POP POP SWAP1 POP SWAP3 POP SWAP3 POP POP PUSH2 0x269 JUMP JUMPDEST PUSH1 0x0 DUP5 DUP2 MSTORE PUSH1 0x20 DUP2 SWAP1 MSTORE PUSH1 0x40 DUP2 KECCAK256 PUSH2 0x219 PUSH1 0x1 DUP5 PUSH2 0x78E JUMP JUMPDEST DUP2 SLOAD DUP2 LT PUSH2 0x229 JUMPI PUSH2 0x229 PUSH2 0x7D6 JUMP JUMPDEST SWAP1 PUSH1 0x0 MSTORE PUSH1 0x20 PUSH1 0x0 KECCAK256 SWAP1 PUSH1 0x3 MUL ADD DUP1 PUSH1 0x40 MLOAD DUP1 PUSH1 0x60 ADD PUSH1 0x40 MSTORE SWAP1 DUP2 PUSH1 0x0 DUP3 ADD SLOAD DUP2 MSTORE PUSH1 0x20 ADD PUSH1 0x1 DUP3 ADD SLOAD DUP2 MSTORE PUSH1 0x20 ADD PUSH1 0x2 DUP3 ADD SLOAD DUP2 MSTORE POP POP SWAP1 POP SWAP3 POP SWAP3 POP POP JUMPDEST SWAP3 POP SWAP3 SWAP1 POP JUMP JUMPDEST PUSH1 0x0 DUP2 DUP2 MSTORE PUSH1 0x20 DUP2 DUP2 MSTORE PUSH1 0x40 DUP1 DUP4 KECCAK256 DUP1 SLOAD DUP3 MLOAD DUP2 DUP6 MUL DUP2 ADD DUP6 ADD SWAP1 SWAP4 MSTORE DUP1 DUP4 MSTORE PUSH1 0x60 SWAP5 SWAP3 SWAP4 SWAP2 SWAP3 SWAP1 SWAP2 DUP5 ADD JUMPDEST DUP3 DUP3 LT ISZERO PUSH2 0x2EC JUMPI DUP4 DUP3 SWAP1 PUSH1 0x0 MSTORE PUSH1 0x20 PUSH1 0x0 KECCAK256 SWAP1 PUSH1 0x3 MUL ADD PUSH1 0x40 MLOAD DUP1 PUSH1 0x60 ADD PUSH1 0x40 MSTORE SWAP1 DUP2 PUSH1 0x0 DUP3 ADD SLOAD DUP2 MSTORE PUSH1 0x20 ADD PUSH1 0x1 DUP3 ADD SLOAD DUP2 MSTORE PUSH1 0x20 ADD PUSH1 0x2 DUP3 ADD SLOAD DUP2 MSTORE POP POP DUP2 MSTORE PUSH1 0x20 ADD SWAP1 PUSH1 0x1 ADD SWAP1 PUSH2 0x29C JUMP JUMPDEST POP POP POP POP SWAP1 POP SWAP2 SWAP1 POP JUMP JUMPDEST PUSH1 0x0 PUSH2 0x302 CALLER PUSH2 0x5E6 JUMP JUMPDEST ISZERO ISZERO PUSH1 0x1 EQ PUSH2 0x310 JUMPI PUSH1 0x0 DUP1 REVERT JUMPDEST PUSH1 0x0 DUP4 DUP2 MSTORE PUSH1 0x20 DUP2 DUP2 MSTORE PUSH1 0x40 DUP1 DUP4 KECCAK256 DUP1 SLOAD DUP3 MLOAD DUP2 DUP6 MUL DUP2 ADD DUP6 ADD SWAP1 SWAP4 MSTORE DUP1 DUP4 MSTORE PUSH2 0x38B SWAP4 DUP10 SWAP4 SWAP3 SWAP2 SWAP1 DUP7 SWAP1 DUP5 ADD DUP3 ISZERO PUSH2 0x173 JUMPI DUP4 DUP3 SWAP1 PUSH1 0x0 MSTORE PUSH1 0x20 PUSH1 0x0 KECCAK256 SWAP1 PUSH1 0x3 MUL ADD PUSH1 0x40 MLOAD DUP1 PUSH1 0x60 ADD PUSH1 0x40 MSTORE SWAP1 DUP2 PUSH1 0x0 DUP3 ADD SLOAD DUP2 MSTORE PUSH1 0x20 ADD PUSH1 0x1 DUP3 ADD SLOAD DUP2 MSTORE PUSH1 0x20 ADD PUSH1 0x2 DUP3 ADD SLOAD DUP2 MSTORE POP POP DUP2 MSTORE PUSH1 0x20 ADD SWAP1 PUSH1 0x1 ADD SWAP1 PUSH2 0x123 JUMP JUMPDEST SWAP1 POP PUSH1 0x0 PUSH2 0x39A PUSH1 0x1 DUP4 PUSH2 0x78E JUMP JUMPDEST GT ISZERO PUSH2 0x496 JUMPI PUSH32 0xB7CDCED8C7C4E48FCB5E29E76371E78F62509FF97A6175D44F84AD36252008E4 PUSH1 0x0 PUSH1 0x40 MLOAD PUSH2 0x3F3 SWAP2 ISZERO ISZERO DUP2 MSTORE PUSH1 0x40 PUSH1 0x20 DUP3 ADD DUP2 SWAP1 MSTORE PUSH1 0x7 SWAP1 DUP3 ADD MSTORE PUSH7 0x616C7265616479 PUSH1 0xC8 SHL PUSH1 0x60 DUP3 ADD MSTORE PUSH1 0x80 ADD SWAP1 JUMP JUMPDEST PUSH1 0x40 MLOAD DUP1 SWAP2 SUB SWAP1 LOG1 PUSH1 0x0 DUP5 DUP2 MSTORE PUSH1 0x20 DUP2 SWAP1 MSTORE PUSH1 0x40 SWAP1 KECCAK256 PUSH32 0xCCC0C5D3C89CFCF7D56826EC7EF2AEBE60E5DFE931762FEF6892936D105549B7 SWAP1 PUSH1 0x1 SWAP1 PUSH2 0x438 DUP3 DUP6 PUSH2 0x78E JUMP JUMPDEST DUP2 SLOAD DUP2 LT PUSH2 0x448 JUMPI PUSH2 0x448 PUSH2 0x7D6 JUMP JUMPDEST SWAP1 PUSH1 0x0 MSTORE PUSH1 0x20 PUSH1 0x0 KECCAK256 SWAP1 PUSH1 0x3 MUL ADD PUSH1 0x40 MLOAD PUSH2 0x484 SWAP3 SWAP2 SWAP1 SWAP2 ISZERO ISZERO DUP3 MSTORE DUP1 SLOAD PUSH1 0x20 DUP4 ADD MSTORE PUSH1 0x1 DUP2 ADD SLOAD PUSH1 0x40 DUP4 ADD MSTORE PUSH1 0x2 ADD SLOAD PUSH1 0x60 DUP3 ADD MSTORE PUSH1 0x80 ADD SWAP1 JUMP JUMPDEST PUSH1 0x40 MLOAD DUP1 SWAP2 SUB SWAP1 LOG1 PUSH1 0x0 SWAP2 POP POP PUSH2 0x57C JUMP JUMPDEST PUSH1 0x0 DUP5 DUP2 MSTORE PUSH1 0x20 DUP2 DUP2 MSTORE PUSH1 0x40 DUP1 DUP4 KECCAK256 DUP2 MLOAD PUSH1 0x60 DUP2 ADD DUP4 MSTORE DUP10 DUP2 MSTORE DUP1 DUP5 ADD DUP9 DUP2 MSTORE TIMESTAMP DUP3 DUP6 ADD DUP2 DUP2 MSTORE DUP5 SLOAD PUSH1 0x1 DUP2 DUP2 ADD DUP8 SSTORE SWAP6 DUP10 MSTORE SWAP7 SWAP1 SWAP8 KECCAK256 SWAP3 MLOAD PUSH1 0x3 SWAP1 SWAP7 MUL SWAP1 SWAP3 ADD SWAP5 DUP6 SSTORE MLOAD DUP5 DUP4 ADD SSTORE SWAP4 MLOAD PUSH1 0x2 SWAP1 SWAP4 ADD SWAP3 SWAP1 SWAP3 SSTORE MLOAD PUSH32 0xB7CDCED8C7C4E48FCB5E29E76371E78F62509FF97A6175D44F84AD36252008E4 SWAP2 PUSH2 0x53A SWAP2 SWAP1 ISZERO ISZERO DUP2 MSTORE PUSH1 0x40 PUSH1 0x20 DUP3 ADD DUP2 SWAP1 MSTORE PUSH1 0x6 SWAP1 DUP3 ADD MSTORE PUSH6 0x1CDD1BDC9959 PUSH1 0xD2 SHL PUSH1 0x60 DUP3 ADD MSTORE PUSH1 0x80 ADD SWAP1 JUMP JUMPDEST PUSH1 0x40 MLOAD DUP1 SWAP2 SUB SWAP1 LOG1 PUSH1 0x40 MLOAD DUP2 DUP2 MSTORE PUSH32 0xB776F27E2626443CEE65F6C6F97999F4A5C737555723BDD3513A565406A61FED SWAP1 PUSH1 0x20 ADD PUSH1 0x40 MLOAD DUP1 SWAP2 SUB SWAP1 LOG1 PUSH1 0x1 SWAP3 POP POP POP JUMPDEST SWAP4 SWAP3 POP POP POP JUMP JUMPDEST PUSH1 0x0 DUP1 JUMPDEST DUP3 MLOAD DUP2 LT ISZERO PUSH2 0x5DA JUMPI DUP4 DUP4 DUP3 DUP2 MLOAD DUP2 LT PUSH2 0x5A3 JUMPI PUSH2 0x5A3 PUSH2 0x7D6 JUMP JUMPDEST PUSH1 0x20 MUL PUSH1 0x20 ADD ADD MLOAD PUSH1 0x0 ADD MLOAD EQ ISZERO PUSH2 0x5C8 JUMPI PUSH2 0x5C0 DUP2 PUSH1 0x1 PUSH2 0x776 JUMP JUMPDEST SWAP2 POP POP PUSH2 0x5E0 JUMP JUMPDEST DUP1 PUSH2 0x5D2 DUP2 PUSH2 0x7A5 JUMP JUMPDEST SWAP2 POP POP PUSH2 0x587 JUMP JUMPDEST POP PUSH1 0x1 SWAP1 POP JUMPDEST SWAP3 SWAP2 POP POP JUMP JUMPDEST PUSH1 0x1 SLOAD PUSH1 0x40 MLOAD PUSH4 0x3AA3A015 PUSH1 0xE1 SHL DUP2 MSTORE PUSH1 0x1 PUSH1 0x1 PUSH1 0xA0 SHL SUB DUP4 DUP2 AND PUSH1 0x4 DUP4 ADD MSTORE PUSH1 0x0 SWAP3 AND SWAP1 PUSH4 0x7547402A SWAP1 PUSH1 0x24 ADD PUSH1 0x20 PUSH1 0x40 MLOAD DUP1 DUP4 SUB DUP2 PUSH1 0x0 DUP8 DUP1 EXTCODESIZE ISZERO DUP1 ISZERO PUSH2 0x62E JUMPI PUSH1 0x0 DUP1 REVERT JUMPDEST POP GAS CALL ISZERO DUP1 ISZERO PUSH2 0x642 JUMPI RETURNDATASIZE PUSH1 0x0 DUP1 RETURNDATACOPY RETURNDATASIZE PUSH1 0x0 REVERT JUMPDEST POP POP POP POP PUSH1 0x40 MLOAD RETURNDATASIZE PUSH1 0x1F NOT PUSH1 0x1F DUP3 ADD AND DUP3 ADD DUP1 PUSH1 0x40 MSTORE POP DUP2 ADD SWAP1 PUSH2 0x5E0 SWAP2 SWAP1 PUSH1 0x0 PUSH1 0x20 DUP3 DUP5 SUB SLT ISZERO PUSH2 0x673 JUMPI PUSH1 0x0 DUP1 REVERT JUMPDEST DUP2 MLOAD DUP1 ISZERO ISZERO DUP2 EQ PUSH2 0x57C JUMPI PUSH1 0x0 DUP1 REVERT JUMPDEST PUSH1 0x0 PUSH1 0x20 DUP3 DUP5 SUB SLT ISZERO PUSH2 0x695 JUMPI PUSH1 0x0 DUP1 REVERT JUMPDEST POP CALLDATALOAD SWAP2 SWAP1 POP JUMP JUMPDEST PUSH1 0x0 DUP1 PUSH1 0x40 DUP4 DUP6 SUB SLT ISZERO PUSH2 0x6AF JUMPI PUSH1 0x0 DUP1 REVERT JUMPDEST POP POP DUP1 CALLDATALOAD SWAP3 PUSH1 0x20 SWAP1 SWAP2 ADD CALLDATALOAD SWAP2 POP JUMP JUMPDEST PUSH1 0x0 DUP1 PUSH1 0x0 PUSH1 0x60 DUP5 DUP7 SUB SLT ISZERO PUSH2 0x6D3 JUMPI PUSH1 0x0 DUP1 REVERT JUMPDEST POP POP DUP2 CALLDATALOAD SWAP4 PUSH1 0x20 DUP4 ADD CALLDATALOAD SWAP4 POP PUSH1 0x40 SWAP1 SWAP3 ADD CALLDATALOAD SWAP2 SWAP1 POP JUMP JUMPDEST PUSH1 0x20 DUP1 DUP3 MSTORE DUP3 MLOAD DUP3 DUP3 ADD DUP2 SWAP1 MSTORE PUSH1 0x0 SWAP2 SWAP1 DUP5 DUP3 ADD SWAP1 PUSH1 0x40 DUP6 ADD SWAP1 DUP5 JUMPDEST DUP2 DUP2 LT ISZERO PUSH2 0x740 JUMPI PUSH2 0x72D DUP4 DUP6 MLOAD DUP1 MLOAD DUP3 MSTORE PUSH1 0x20 DUP1 DUP3 ADD MLOAD SWAP1 DUP4 ADD MSTORE PUSH1 0x40 SWAP1 DUP2 ADD MLOAD SWAP2 ADD MSTORE JUMP JUMPDEST SWAP3 DUP5 ADD SWAP3 PUSH1 0x60 SWAP3 SWAP1 SWAP3 ADD SWAP2 PUSH1 0x1 ADD PUSH2 0x706 JUMP JUMPDEST POP SWAP1 SWAP7 SWAP6 POP POP POP POP POP POP JUMP JUMPDEST DUP3 ISZERO ISZERO DUP2 MSTORE PUSH1 0x80 DUP2 ADD PUSH2 0x57C PUSH1 0x20 DUP4 ADD DUP5 DUP1 MLOAD DUP3 MSTORE PUSH1 0x20 DUP1 DUP3 ADD MLOAD SWAP1 DUP4 ADD MSTORE PUSH1 0x40 SWAP1 DUP2 ADD MLOAD SWAP2 ADD MSTORE JUMP JUMPDEST PUSH1 0x0 DUP3 NOT DUP3 GT ISZERO PUSH2 0x789 JUMPI PUSH2 0x789 PUSH2 0x7C0 JUMP JUMPDEST POP ADD SWAP1 JUMP JUMPDEST PUSH1 0x0 DUP3 DUP3 LT ISZERO PUSH2 0x7A0 JUMPI PUSH2 0x7A0 PUSH2 0x7C0 JUMP JUMPDEST POP SUB SWAP1 JUMP JUMPDEST PUSH1 0x0 PUSH1 0x0 NOT DUP3 EQ ISZERO PUSH2 0x7B9 JUMPI PUSH2 0x7B9 PUSH2 0x7C0 JUMP JUMPDEST POP PUSH1 0x1 ADD SWAP1 JUMP JUMPDEST PUSH4 0x4E487B71 PUSH1 0xE0 SHL PUSH1 0x0 MSTORE PUSH1 0x11 PUSH1 0x4 MSTORE PUSH1 0x24 PUSH1 0x0 REVERT JUMPDEST PUSH4 0x4E487B71 PUSH1 0xE0 SHL PUSH1 0x0 MSTORE PUSH1 0x32 PUSH1 0x4 MSTORE PUSH1 0x24 PUSH1 0x0 REVERT INVALID LOG2 PUSH5 0x6970667358 0x22 SLT KECCAK256 0xB4 CREATE2 PUSH22 0x7A4A415A149A971D1209FAE414C3EA3FF652EB00098 0xD4 CALLER RETURNDATACOPY GAS TIMESTAMP RETURNDATACOPY 0xB2 PUSH5 0x736F6C6343 STOP ADDMOD SMOD STOP CALLER ",
  "sha1": "84593a2c2eef4268f16040c3b1a7840148fcec0f",
  "source": "// SPDX-License-Identifier: MIT\npragma solidity >=0.7.0 <0.9.0;\nimport \"./Handler.sol\";\n\ncontract CertificateRegistry is CertificateHandler {\n   constructor(address registrySC) CertificateHandler(registrySC) {}\n}",
  "sourcePath": "contracts/Certificate/Certificate.sol",
  "type": "contract"
}