{
  "abi": [
    {
      "inputs": [
        {
          "internalType": "address",
          "name": "registrySC",
          "type": "address"
        }
      ],
      "stateMutability": "nonpayable",
      "type": "constructor"
    },
    {
      "anonymous": false,
      "inputs": [
        {
          "indexed": false,
          "internalType": "address",
          "name": "Registry_sc",
          "type": "address"
        }
      ],
      "name": "DebugRegistryAddress",
      "type": "event"
    },
    {
      "anonymous": false,
      "inputs": [
        {
          "indexed": false,
          "internalType": "bool",
          "name": "value",
          "type": "bool"
        },
        {
          "indexed": false,
          "internalType": "string",
          "name": "result",
          "type": "string"
        }
      ],
      "name": "IsSuccess",
      "type": "event"
    },
    {
      "anonymous": false,
      "inputs": [
        {
          "indexed": false,
          "internalType": "bool",
          "name": "is_exist",
          "type": "bool"
        },
        {
          "components": [
            {
              "internalType": "bytes32",
              "name": "cov_certificate_identifier",
              "type": "bytes32"
            },
            {
              "internalType": "bytes32",
              "name": "certificate_data",
              "type": "bytes32"
            },
            {
              "internalType": "uint256",
              "name": "timestamp",
              "type": "uint256"
            }
          ],
          "indexed": false,
          "internalType": "struct Data.COV_CERTIFICATE",
          "name": "certificate_data",
          "type": "tuple"
        }
      ],
      "name": "certificateExist",
      "type": "event"
    },
    {
      "anonymous": false,
      "inputs": [
        {
          "indexed": false,
          "internalType": "bool",
          "name": "is_exist",
          "type": "bool"
        },
        {
          "components": [
            {
              "internalType": "bytes32",
              "name": "cov_certificate_identifier",
              "type": "bytes32"
            },
            {
              "internalType": "bytes32",
              "name": "certificate_data",
              "type": "bytes32"
            },
            {
              "internalType": "uint256",
              "name": "timestamp",
              "type": "uint256"
            }
          ],
          "indexed": false,
          "internalType": "struct Data.COV_CERTIFICATE[]",
          "name": "certificate_data",
          "type": "tuple[]"
        }
      ],
      "name": "getCertificate",
      "type": "event"
    },
    {
      "anonymous": false,
      "inputs": [
        {
          "indexed": false,
          "internalType": "bool",
          "name": "value",
          "type": "bool"
        }
      ],
      "name": "isFailed",
      "type": "event"
    },
    {
      "anonymous": false,
      "inputs": [
        {
          "indexed": false,
          "internalType": "uint256",
          "name": "timestamp",
          "type": "uint256"
        }
      ],
      "name": "timestampEvent",
      "type": "event"
    },
    {
      "inputs": [
        {
          "internalType": "bytes32",
          "name": "holder_id",
          "type": "bytes32"
        }
      ],
      "name": "getCertificatesByUser",
      "outputs": [
        {
          "components": [
            {
              "internalType": "bytes32",
              "name": "cov_certificate_identifier",
              "type": "bytes32"
            },
            {
              "internalType": "bytes32",
              "name": "certificate_data",
              "type": "bytes32"
            },
            {
              "internalType": "uint256",
              "name": "timestamp",
              "type": "uint256"
            }
          ],
          "internalType": "struct Data.COV_CERTIFICATE[]",
          "name": "certificate_data",
          "type": "tuple[]"
        }
      ],
      "stateMutability": "view",
      "type": "function"
    },
    {
      "inputs": [],
      "name": "getRegistryAddress",
      "outputs": [
        {
          "internalType": "address",
          "name": "",
          "type": "address"
        }
      ],
      "stateMutability": "view",
      "type": "function"
    },
    {
      "inputs": [
        {
          "internalType": "bytes32",
          "name": "certificate_hash",
          "type": "bytes32"
        },
        {
          "internalType": "bytes32",
          "name": "holder_id",
          "type": "bytes32"
        },
        {
          "internalType": "string",
          "name": "payload",
          "type": "string"
        },
        {
          "internalType": "bytes32",
          "name": "data_address",
          "type": "bytes32"
        }
      ],
      "name": "registerCertificate",
      "outputs": [
        {
          "internalType": "bool",
          "name": "success",
          "type": "bool"
        }
      ],
      "stateMutability": "nonpayable",
      "type": "function"
    },
    {
      "inputs": [
        {
          "internalType": "bytes32",
          "name": "certificate_hash",
          "type": "bytes32"
        },
        {
          "internalType": "bytes32",
          "name": "holder_id",
          "type": "bytes32"
        }
      ],
      "name": "verifyCertificate",
      "outputs": [
        {
          "internalType": "bool",
          "name": "",
          "type": "bool"
        },
        {
          "components": [
            {
              "internalType": "bytes32",
              "name": "cov_certificate_identifier",
              "type": "bytes32"
            },
            {
              "internalType": "bytes32",
              "name": "certificate_data",
              "type": "bytes32"
            },
            {
              "internalType": "uint256",
              "name": "timestamp",
              "type": "uint256"
            }
          ],
          "internalType": "struct Data.COV_CERTIFICATE",
          "name": "",
          "type": "tuple"
        }
      ],
      "stateMutability": "view",
      "type": "function"
    }
  ],
  "bytecode": "608060405234801561001057600080fd5b50604051610a50380380610a5083398101604081905261002f91610062565b600280546001600160a01b03199081163317909155600080546001600160a01b0390931692909116919091179055610092565b60006020828403121561007457600080fd5b81516001600160a01b038116811461008b57600080fd5b9392505050565b6109af806100a16000396000f3fe608060405234801561001057600080fd5b506004361061004c5760003560e01c806311f3524c146100515780631f75435d1461007957806354ca51db1461009a578063f21de1e8146100ba575b600080fd5b61006461005f36600461074e565b6100d5565b60405190151581526020015b60405180910390f35b61008c61008736600461072c565b6103bf565b6040516100709291906108c3565b6100ad6100a8366004610713565b61053f565b6040516100709190610861565b6000546040516001600160a01b039091168152602001610070565b60006100e0336105cf565b15156001146100ee57600080fd5b60008481526003602090815260408083208054825181850281018501909352808352610177938a93929190869084015b8282101561016e578382906000526020600020906003020160405180606001604052908160008201548152602001600182015481526020016002820154815250508152602001906001019061011e565b50505050610655565b90508015610275577fb7cdced8c7c4e48fcb5e29e76371e78f62509ff97a6175d44f84ad36252008e460006040516101d2911515815260406020820181905260079082015266616c726561647960c81b606082015260800190565b60405180910390a160008581526003602052604090207fccc0c5d3c89cfcf7d56826ec7ef2aebe60e5dfe931762fef6892936d105549b7906001906102178285610905565b815481106102275761022761094d565b90600052602060002090600302016040516102639291909115158252805460208301526001810154604083015260020154606082015260800190565b60405180910390a160009150506103b7565b6102808685876106b6565b6102d8577fb7cdced8c7c4e48fcb5e29e76371e78f62509ff97a6175d44f84ad36252008e460006040516102639115158152604060208201819052600890820152670ccc2d2d8d0c2e6d60c31b606082015260800190565b60008581526003602081815260408084208151606080820184528c82528185018a815242838601818152855460018082018855968b5299889020945199909802909301978855518784015594516002909601959095558151908152918201819052600690820152651cdd1bdc995960d21b918101919091527fb7cdced8c7c4e48fcb5e29e76371e78f62509ff97a6175d44f84ad36252008e49060800160405180910390a16040518181527fb776f27e2626443cee65f6c6f97999f4a5c737555723bdd3513a565406a61fed9060200160405180910390a16001925050505b949350505050565b604080516060810182526000808252602082018190529181018290526000838152600360209081526040808320805482518185028101850190935280835261045893899392919086908401821561016e578382906000526020600020906003020160405180606001604052908160008201548152602001600182015481526020016002820154815250508152602001906001019061011e565b905080156104cf57600084815260036020526040902060019061047b8284610905565b8154811061048b5761048b61094d565b906000526020600020906003020180604051806060016040529081600082015481526020016001820154815260200160028201548152505090509250925050610538565b60008481526003602052604081206104e8600184610905565b815481106104f8576104f861094d565b9060005260206000209060030201806040518060600160405290816000820154815260200160018201548152602001600282015481525050905092509250505b9250929050565b606060036000838152602001908152602001600020805480602002602001604051908101604052809291908181526020016000905b828210156105c45783829060005260206000209060030201604051806060016040529081600082015481526020016001820154815260200160028201548152505081526020019060010190610574565b505050509050919050565b60008054604051631830003560e21b81526001600160a01b038481166004830152909116906360c000d490602401602060405180830381600087803b15801561061757600080fd5b505af115801561062b573d6000803e3d6000fd5b505050506040513d601f19601f8201168201806040525081019061064f91906106f1565b92915050565b6000805b82518110156106ac57838382815181106106755761067561094d565b602002602001015160000151141561069a576106928160016108ed565b91505061064f565b806106a48161091c565b915050610659565b5060009392505050565b60008082846040516020016106cc92919061081a565b60408051601f19818403018152919052805160209091012085149150505b9392505050565b60006020828403121561070357600080fd5b815180151581146106ea57600080fd5b60006020828403121561072557600080fd5b5035919050565b6000806040838503121561073f57600080fd5b50508035926020909101359150565b6000806000806080858703121561076457600080fd5b8435935060208501359250604085013567ffffffffffffffff8082111561078a57600080fd5b818701915087601f83011261079e57600080fd5b8135818111156107b0576107b0610963565b604051601f8201601f19908116603f011681019083821181831017156107d8576107d8610963565b816040528281528a60208487010111156107f157600080fd5b826020860160208301376000928101602001929092525095989497509495606001359450505050565b8281526000825160005b8181101561084057602081860181015185830182015201610824565b81811115610852576000602083860101525b50919091016020019392505050565b6020808252825182820181905260009190848201906040850190845b818110156108b7576108a48385518051825260208082015190830152604090810151910152565b928401926060929092019160010161087d565b50909695505050505050565b8215158152608081016106ea60208301848051825260208082015190830152604090810151910152565b6000821982111561090057610900610937565b500190565b60008282101561091757610917610937565b500390565b600060001982141561093057610930610937565b5060010190565b634e487b7160e01b600052601160045260246000fd5b634e487b7160e01b600052603260045260246000fd5b634e487b7160e01b600052604160045260246000fdfea26469706673582212200391c16afd68c643409529b092166f0e55d36c0eb1995e45c93add54bcaaf4b364736f6c63430008070033",
  "bytecodeSha1": "f0e43fa4064e207db892e4909d2783bec3d2b54d",
  "compiler": {
    "evm_version": "istanbul",
    "optimizer": {
      "enabled": true,
      "runs": 200
    },
    "version": "0.8.7+commit.e28d00a7"
  },
  "contractName": "CertificateHandler",
  "language": "Solidity",
  "natspec": {
    "kind": "dev",
    "methods": {},
    "version": 1
  },
  "opcodes": "PUSH1 0x80 PUSH1 0x40 MSTORE CALLVALUE DUP1 ISZERO PUSH2 0x10 JUMPI PUSH1 0x0 DUP1 REVERT JUMPDEST POP PUSH1 0x4 CALLDATASIZE LT PUSH2 0x4C JUMPI PUSH1 0x0 CALLDATALOAD PUSH1 0xE0 SHR DUP1 PUSH4 0x11F3524C EQ PUSH2 0x51 JUMPI DUP1 PUSH4 0x1F75435D EQ PUSH2 0x79 JUMPI DUP1 PUSH4 0x54CA51DB EQ PUSH2 0x9A JUMPI DUP1 PUSH4 0xF21DE1E8 EQ PUSH2 0xBA JUMPI JUMPDEST PUSH1 0x0 DUP1 REVERT JUMPDEST PUSH2 0x64 PUSH2 0x5F CALLDATASIZE PUSH1 0x4 PUSH2 0x74E JUMP JUMPDEST PUSH2 0xD5 JUMP JUMPDEST PUSH1 0x40 MLOAD SWAP1 ISZERO ISZERO DUP2 MSTORE PUSH1 0x20 ADD JUMPDEST PUSH1 0x40 MLOAD DUP1 SWAP2 SUB SWAP1 RETURN JUMPDEST PUSH2 0x8C PUSH2 0x87 CALLDATASIZE PUSH1 0x4 PUSH2 0x72C JUMP JUMPDEST PUSH2 0x3BF JUMP JUMPDEST PUSH1 0x40 MLOAD PUSH2 0x70 SWAP3 SWAP2 SWAP1 PUSH2 0x8C3 JUMP JUMPDEST PUSH2 0xAD PUSH2 0xA8 CALLDATASIZE PUSH1 0x4 PUSH2 0x713 JUMP JUMPDEST PUSH2 0x53F JUMP JUMPDEST PUSH1 0x40 MLOAD PUSH2 0x70 SWAP2 SWAP1 PUSH2 0x861 JUMP JUMPDEST PUSH1 0x0 SLOAD PUSH1 0x40 MLOAD PUSH1 0x1 PUSH1 0x1 PUSH1 0xA0 SHL SUB SWAP1 SWAP2 AND DUP2 MSTORE PUSH1 0x20 ADD PUSH2 0x70 JUMP JUMPDEST PUSH1 0x0 PUSH2 0xE0 CALLER PUSH2 0x5CF JUMP JUMPDEST ISZERO ISZERO PUSH1 0x1 EQ PUSH2 0xEE JUMPI PUSH1 0x0 DUP1 REVERT JUMPDEST PUSH1 0x0 DUP5 DUP2 MSTORE PUSH1 0x3 PUSH1 0x20 SWAP1 DUP2 MSTORE PUSH1 0x40 DUP1 DUP4 KECCAK256 DUP1 SLOAD DUP3 MLOAD DUP2 DUP6 MUL DUP2 ADD DUP6 ADD SWAP1 SWAP4 MSTORE DUP1 DUP4 MSTORE PUSH2 0x177 SWAP4 DUP11 SWAP4 SWAP3 SWAP2 SWAP1 DUP7 SWAP1 DUP5 ADD JUMPDEST DUP3 DUP3 LT ISZERO PUSH2 0x16E JUMPI DUP4 DUP3 SWAP1 PUSH1 0x0 MSTORE PUSH1 0x20 PUSH1 0x0 KECCAK256 SWAP1 PUSH1 0x3 MUL ADD PUSH1 0x40 MLOAD DUP1 PUSH1 0x60 ADD PUSH1 0x40 MSTORE SWAP1 DUP2 PUSH1 0x0 DUP3 ADD SLOAD DUP2 MSTORE PUSH1 0x20 ADD PUSH1 0x1 DUP3 ADD SLOAD DUP2 MSTORE PUSH1 0x20 ADD PUSH1 0x2 DUP3 ADD SLOAD DUP2 MSTORE POP POP DUP2 MSTORE PUSH1 0x20 ADD SWAP1 PUSH1 0x1 ADD SWAP1 PUSH2 0x11E JUMP JUMPDEST POP POP POP POP PUSH2 0x655 JUMP JUMPDEST SWAP1 POP DUP1 ISZERO PUSH2 0x275 JUMPI PUSH32 0xB7CDCED8C7C4E48FCB5E29E76371E78F62509FF97A6175D44F84AD36252008E4 PUSH1 0x0 PUSH1 0x40 MLOAD PUSH2 0x1D2 SWAP2 ISZERO ISZERO DUP2 MSTORE PUSH1 0x40 PUSH1 0x20 DUP3 ADD DUP2 SWAP1 MSTORE PUSH1 0x7 SWAP1 DUP3 ADD MSTORE PUSH7 0x616C7265616479 PUSH1 0xC8 SHL PUSH1 0x60 DUP3 ADD MSTORE PUSH1 0x80 ADD SWAP1 JUMP JUMPDEST PUSH1 0x40 MLOAD DUP1 SWAP2 SUB SWAP1 LOG1 PUSH1 0x0 DUP6 DUP2 MSTORE PUSH1 0x3 PUSH1 0x20 MSTORE PUSH1 0x40 SWAP1 KECCAK256 PUSH32 0xCCC0C5D3C89CFCF7D56826EC7EF2AEBE60E5DFE931762FEF6892936D105549B7 SWAP1 PUSH1 0x1 SWAP1 PUSH2 0x217 DUP3 DUP6 PUSH2 0x905 JUMP JUMPDEST DUP2 SLOAD DUP2 LT PUSH2 0x227 JUMPI PUSH2 0x227 PUSH2 0x94D JUMP JUMPDEST SWAP1 PUSH1 0x0 MSTORE PUSH1 0x20 PUSH1 0x0 KECCAK256 SWAP1 PUSH1 0x3 MUL ADD PUSH1 0x40 MLOAD PUSH2 0x263 SWAP3 SWAP2 SWAP1 SWAP2 ISZERO ISZERO DUP3 MSTORE DUP1 SLOAD PUSH1 0x20 DUP4 ADD MSTORE PUSH1 0x1 DUP2 ADD SLOAD PUSH1 0x40 DUP4 ADD MSTORE PUSH1 0x2 ADD SLOAD PUSH1 0x60 DUP3 ADD MSTORE PUSH1 0x80 ADD SWAP1 JUMP JUMPDEST PUSH1 0x40 MLOAD DUP1 SWAP2 SUB SWAP1 LOG1 PUSH1 0x0 SWAP2 POP POP PUSH2 0x3B7 JUMP JUMPDEST PUSH2 0x280 DUP7 DUP6 DUP8 PUSH2 0x6B6 JUMP JUMPDEST PUSH2 0x2D8 JUMPI PUSH32 0xB7CDCED8C7C4E48FCB5E29E76371E78F62509FF97A6175D44F84AD36252008E4 PUSH1 0x0 PUSH1 0x40 MLOAD PUSH2 0x263 SWAP2 ISZERO ISZERO DUP2 MSTORE PUSH1 0x40 PUSH1 0x20 DUP3 ADD DUP2 SWAP1 MSTORE PUSH1 0x8 SWAP1 DUP3 ADD MSTORE PUSH8 0xCCC2D2D8D0C2E6D PUSH1 0xC3 SHL PUSH1 0x60 DUP3 ADD MSTORE PUSH1 0x80 ADD SWAP1 JUMP JUMPDEST PUSH1 0x0 DUP6 DUP2 MSTORE PUSH1 0x3 PUSH1 0x20 DUP2 DUP2 MSTORE PUSH1 0x40 DUP1 DUP5 KECCAK256 DUP2 MLOAD PUSH1 0x60 DUP1 DUP3 ADD DUP5 MSTORE DUP13 DUP3 MSTORE DUP2 DUP6 ADD DUP11 DUP2 MSTORE TIMESTAMP DUP4 DUP7 ADD DUP2 DUP2 MSTORE DUP6 SLOAD PUSH1 0x1 DUP1 DUP3 ADD DUP9 SSTORE SWAP7 DUP12 MSTORE SWAP10 DUP9 SWAP1 KECCAK256 SWAP5 MLOAD SWAP10 SWAP1 SWAP9 MUL SWAP1 SWAP4 ADD SWAP8 DUP9 SSTORE MLOAD DUP8 DUP5 ADD SSTORE SWAP5 MLOAD PUSH1 0x2 SWAP1 SWAP7 ADD SWAP6 SWAP1 SWAP6 SSTORE DUP2 MLOAD SWAP1 DUP2 MSTORE SWAP2 DUP3 ADD DUP2 SWAP1 MSTORE PUSH1 0x6 SWAP1 DUP3 ADD MSTORE PUSH6 0x1CDD1BDC9959 PUSH1 0xD2 SHL SWAP2 DUP2 ADD SWAP2 SWAP1 SWAP2 MSTORE PUSH32 0xB7CDCED8C7C4E48FCB5E29E76371E78F62509FF97A6175D44F84AD36252008E4 SWAP1 PUSH1 0x80 ADD PUSH1 0x40 MLOAD DUP1 SWAP2 SUB SWAP1 LOG1 PUSH1 0x40 MLOAD DUP2 DUP2 MSTORE PUSH32 0xB776F27E2626443CEE65F6C6F97999F4A5C737555723BDD3513A565406A61FED SWAP1 PUSH1 0x20 ADD PUSH1 0x40 MLOAD DUP1 SWAP2 SUB SWAP1 LOG1 PUSH1 0x1 SWAP3 POP POP POP JUMPDEST SWAP5 SWAP4 POP POP POP POP JUMP JUMPDEST PUSH1 0x40 DUP1 MLOAD PUSH1 0x60 DUP2 ADD DUP3 MSTORE PUSH1 0x0 DUP1 DUP3 MSTORE PUSH1 0x20 DUP3 ADD DUP2 SWAP1 MSTORE SWAP2 DUP2 ADD DUP3 SWAP1 MSTORE PUSH1 0x0 DUP4 DUP2 MSTORE PUSH1 0x3 PUSH1 0x20 SWAP1 DUP2 MSTORE PUSH1 0x40 DUP1 DUP4 KECCAK256 DUP1 SLOAD DUP3 MLOAD DUP2 DUP6 MUL DUP2 ADD DUP6 ADD SWAP1 SWAP4 MSTORE DUP1 DUP4 MSTORE PUSH2 0x458 SWAP4 DUP10 SWAP4 SWAP3 SWAP2 SWAP1 DUP7 SWAP1 DUP5 ADD DUP3 ISZERO PUSH2 0x16E JUMPI DUP4 DUP3 SWAP1 PUSH1 0x0 MSTORE PUSH1 0x20 PUSH1 0x0 KECCAK256 SWAP1 PUSH1 0x3 MUL ADD PUSH1 0x40 MLOAD DUP1 PUSH1 0x60 ADD PUSH1 0x40 MSTORE SWAP1 DUP2 PUSH1 0x0 DUP3 ADD SLOAD DUP2 MSTORE PUSH1 0x20 ADD PUSH1 0x1 DUP3 ADD SLOAD DUP2 MSTORE PUSH1 0x20 ADD PUSH1 0x2 DUP3 ADD SLOAD DUP2 MSTORE POP POP DUP2 MSTORE PUSH1 0x20 ADD SWAP1 PUSH1 0x1 ADD SWAP1 PUSH2 0x11E JUMP JUMPDEST SWAP1 POP DUP1 ISZERO PUSH2 0x4CF JUMPI PUSH1 0x0 DUP5 DUP2 MSTORE PUSH1 0x3 PUSH1 0x20 MSTORE PUSH1 0x40 SWAP1 KECCAK256 PUSH1 0x1 SWAP1 PUSH2 0x47B DUP3 DUP5 PUSH2 0x905 JUMP JUMPDEST DUP2 SLOAD DUP2 LT PUSH2 0x48B JUMPI PUSH2 0x48B PUSH2 0x94D JUMP JUMPDEST SWAP1 PUSH1 0x0 MSTORE PUSH1 0x20 PUSH1 0x0 KECCAK256 SWAP1 PUSH1 0x3 MUL ADD DUP1 PUSH1 0x40 MLOAD DUP1 PUSH1 0x60 ADD PUSH1 0x40 MSTORE SWAP1 DUP2 PUSH1 0x0 DUP3 ADD SLOAD DUP2 MSTORE PUSH1 0x20 ADD PUSH1 0x1 DUP3 ADD SLOAD DUP2 MSTORE PUSH1 0x20 ADD PUSH1 0x2 DUP3 ADD SLOAD DUP2 MSTORE POP POP SWAP1 POP SWAP3 POP SWAP3 POP POP PUSH2 0x538 JUMP JUMPDEST PUSH1 0x0 DUP5 DUP2 MSTORE PUSH1 0x3 PUSH1 0x20 MSTORE PUSH1 0x40 DUP2 KECCAK256 PUSH2 0x4E8 PUSH1 0x1 DUP5 PUSH2 0x905 JUMP JUMPDEST DUP2 SLOAD DUP2 LT PUSH2 0x4F8 JUMPI PUSH2 0x4F8 PUSH2 0x94D JUMP JUMPDEST SWAP1 PUSH1 0x0 MSTORE PUSH1 0x20 PUSH1 0x0 KECCAK256 SWAP1 PUSH1 0x3 MUL ADD DUP1 PUSH1 0x40 MLOAD DUP1 PUSH1 0x60 ADD PUSH1 0x40 MSTORE SWAP1 DUP2 PUSH1 0x0 DUP3 ADD SLOAD DUP2 MSTORE PUSH1 0x20 ADD PUSH1 0x1 DUP3 ADD SLOAD DUP2 MSTORE PUSH1 0x20 ADD PUSH1 0x2 DUP3 ADD SLOAD DUP2 MSTORE POP POP SWAP1 POP SWAP3 POP SWAP3 POP POP JUMPDEST SWAP3 POP SWAP3 SWAP1 POP JUMP JUMPDEST PUSH1 0x60 PUSH1 0x3 PUSH1 0x0 DUP4 DUP2 MSTORE PUSH1 0x20 ADD SWAP1 DUP2 MSTORE PUSH1 0x20 ADD PUSH1 0x0 KECCAK256 DUP1 SLOAD DUP1 PUSH1 0x20 MUL PUSH1 0x20 ADD PUSH1 0x40 MLOAD SWAP1 DUP2 ADD PUSH1 0x40 MSTORE DUP1 SWAP3 SWAP2 SWAP1 DUP2 DUP2 MSTORE PUSH1 0x20 ADD PUSH1 0x0 SWAP1 JUMPDEST DUP3 DUP3 LT ISZERO PUSH2 0x5C4 JUMPI DUP4 DUP3 SWAP1 PUSH1 0x0 MSTORE PUSH1 0x20 PUSH1 0x0 KECCAK256 SWAP1 PUSH1 0x3 MUL ADD PUSH1 0x40 MLOAD DUP1 PUSH1 0x60 ADD PUSH1 0x40 MSTORE SWAP1 DUP2 PUSH1 0x0 DUP3 ADD SLOAD DUP2 MSTORE PUSH1 0x20 ADD PUSH1 0x1 DUP3 ADD SLOAD DUP2 MSTORE PUSH1 0x20 ADD PUSH1 0x2 DUP3 ADD SLOAD DUP2 MSTORE POP POP DUP2 MSTORE PUSH1 0x20 ADD SWAP1 PUSH1 0x1 ADD SWAP1 PUSH2 0x574 JUMP JUMPDEST POP POP POP POP SWAP1 POP SWAP2 SWAP1 POP JUMP JUMPDEST PUSH1 0x0 DUP1 SLOAD PUSH1 0x40 MLOAD PUSH4 0x18300035 PUSH1 0xE2 SHL DUP2 MSTORE PUSH1 0x1 PUSH1 0x1 PUSH1 0xA0 SHL SUB DUP5 DUP2 AND PUSH1 0x4 DUP4 ADD MSTORE SWAP1 SWAP2 AND SWAP1 PUSH4 0x60C000D4 SWAP1 PUSH1 0x24 ADD PUSH1 0x20 PUSH1 0x40 MLOAD DUP1 DUP4 SUB DUP2 PUSH1 0x0 DUP8 DUP1 EXTCODESIZE ISZERO DUP1 ISZERO PUSH2 0x617 JUMPI PUSH1 0x0 DUP1 REVERT JUMPDEST POP GAS CALL ISZERO DUP1 ISZERO PUSH2 0x62B JUMPI RETURNDATASIZE PUSH1 0x0 DUP1 RETURNDATACOPY RETURNDATASIZE PUSH1 0x0 REVERT JUMPDEST POP POP POP POP PUSH1 0x40 MLOAD RETURNDATASIZE PUSH1 0x1F NOT PUSH1 0x1F DUP3 ADD AND DUP3 ADD DUP1 PUSH1 0x40 MSTORE POP DUP2 ADD SWAP1 PUSH2 0x64F SWAP2 SWAP1 PUSH2 0x6F1 JUMP JUMPDEST SWAP3 SWAP2 POP POP JUMP JUMPDEST PUSH1 0x0 DUP1 JUMPDEST DUP3 MLOAD DUP2 LT ISZERO PUSH2 0x6AC JUMPI DUP4 DUP4 DUP3 DUP2 MLOAD DUP2 LT PUSH2 0x675 JUMPI PUSH2 0x675 PUSH2 0x94D JUMP JUMPDEST PUSH1 0x20 MUL PUSH1 0x20 ADD ADD MLOAD PUSH1 0x0 ADD MLOAD EQ ISZERO PUSH2 0x69A JUMPI PUSH2 0x692 DUP2 PUSH1 0x1 PUSH2 0x8ED JUMP JUMPDEST SWAP2 POP POP PUSH2 0x64F JUMP JUMPDEST DUP1 PUSH2 0x6A4 DUP2 PUSH2 0x91C JUMP JUMPDEST SWAP2 POP POP PUSH2 0x659 JUMP JUMPDEST POP PUSH1 0x0 SWAP4 SWAP3 POP POP POP JUMP JUMPDEST PUSH1 0x0 DUP1 DUP3 DUP5 PUSH1 0x40 MLOAD PUSH1 0x20 ADD PUSH2 0x6CC SWAP3 SWAP2 SWAP1 PUSH2 0x81A JUMP JUMPDEST PUSH1 0x40 DUP1 MLOAD PUSH1 0x1F NOT DUP2 DUP5 SUB ADD DUP2 MSTORE SWAP2 SWAP1 MSTORE DUP1 MLOAD PUSH1 0x20 SWAP1 SWAP2 ADD KECCAK256 DUP6 EQ SWAP2 POP POP JUMPDEST SWAP4 SWAP3 POP POP POP JUMP JUMPDEST PUSH1 0x0 PUSH1 0x20 DUP3 DUP5 SUB SLT ISZERO PUSH2 0x703 JUMPI PUSH1 0x0 DUP1 REVERT JUMPDEST DUP2 MLOAD DUP1 ISZERO ISZERO DUP2 EQ PUSH2 0x6EA JUMPI PUSH1 0x0 DUP1 REVERT JUMPDEST PUSH1 0x0 PUSH1 0x20 DUP3 DUP5 SUB SLT ISZERO PUSH2 0x725 JUMPI PUSH1 0x0 DUP1 REVERT JUMPDEST POP CALLDATALOAD SWAP2 SWAP1 POP JUMP JUMPDEST PUSH1 0x0 DUP1 PUSH1 0x40 DUP4 DUP6 SUB SLT ISZERO PUSH2 0x73F JUMPI PUSH1 0x0 DUP1 REVERT JUMPDEST POP POP DUP1 CALLDATALOAD SWAP3 PUSH1 0x20 SWAP1 SWAP2 ADD CALLDATALOAD SWAP2 POP JUMP JUMPDEST PUSH1 0x0 DUP1 PUSH1 0x0 DUP1 PUSH1 0x80 DUP6 DUP8 SUB SLT ISZERO PUSH2 0x764 JUMPI PUSH1 0x0 DUP1 REVERT JUMPDEST DUP5 CALLDATALOAD SWAP4 POP PUSH1 0x20 DUP6 ADD CALLDATALOAD SWAP3 POP PUSH1 0x40 DUP6 ADD CALLDATALOAD PUSH8 0xFFFFFFFFFFFFFFFF DUP1 DUP3 GT ISZERO PUSH2 0x78A JUMPI PUSH1 0x0 DUP1 REVERT JUMPDEST DUP2 DUP8 ADD SWAP2 POP DUP8 PUSH1 0x1F DUP4 ADD SLT PUSH2 0x79E JUMPI PUSH1 0x0 DUP1 REVERT JUMPDEST DUP2 CALLDATALOAD DUP2 DUP2 GT ISZERO PUSH2 0x7B0 JUMPI PUSH2 0x7B0 PUSH2 0x963 JUMP JUMPDEST PUSH1 0x40 MLOAD PUSH1 0x1F DUP3 ADD PUSH1 0x1F NOT SWAP1 DUP2 AND PUSH1 0x3F ADD AND DUP2 ADD SWAP1 DUP4 DUP3 GT DUP2 DUP4 LT OR ISZERO PUSH2 0x7D8 JUMPI PUSH2 0x7D8 PUSH2 0x963 JUMP JUMPDEST DUP2 PUSH1 0x40 MSTORE DUP3 DUP2 MSTORE DUP11 PUSH1 0x20 DUP5 DUP8 ADD ADD GT ISZERO PUSH2 0x7F1 JUMPI PUSH1 0x0 DUP1 REVERT JUMPDEST DUP3 PUSH1 0x20 DUP7 ADD PUSH1 0x20 DUP4 ADD CALLDATACOPY PUSH1 0x0 SWAP3 DUP2 ADD PUSH1 0x20 ADD SWAP3 SWAP1 SWAP3 MSTORE POP SWAP6 SWAP9 SWAP5 SWAP8 POP SWAP5 SWAP6 PUSH1 0x60 ADD CALLDATALOAD SWAP5 POP POP POP POP JUMP JUMPDEST DUP3 DUP2 MSTORE PUSH1 0x0 DUP3 MLOAD PUSH1 0x0 JUMPDEST DUP2 DUP2 LT ISZERO PUSH2 0x840 JUMPI PUSH1 0x20 DUP2 DUP7 ADD DUP2 ADD MLOAD DUP6 DUP4 ADD DUP3 ADD MSTORE ADD PUSH2 0x824 JUMP JUMPDEST DUP2 DUP2 GT ISZERO PUSH2 0x852 JUMPI PUSH1 0x0 PUSH1 0x20 DUP4 DUP7 ADD ADD MSTORE JUMPDEST POP SWAP2 SWAP1 SWAP2 ADD PUSH1 0x20 ADD SWAP4 SWAP3 POP POP POP JUMP JUMPDEST PUSH1 0x20 DUP1 DUP3 MSTORE DUP3 MLOAD DUP3 DUP3 ADD DUP2 SWAP1 MSTORE PUSH1 0x0 SWAP2 SWAP1 DUP5 DUP3 ADD SWAP1 PUSH1 0x40 DUP6 ADD SWAP1 DUP5 JUMPDEST DUP2 DUP2 LT ISZERO PUSH2 0x8B7 JUMPI PUSH2 0x8A4 DUP4 DUP6 MLOAD DUP1 MLOAD DUP3 MSTORE PUSH1 0x20 DUP1 DUP3 ADD MLOAD SWAP1 DUP4 ADD MSTORE PUSH1 0x40 SWAP1 DUP2 ADD MLOAD SWAP2 ADD MSTORE JUMP JUMPDEST SWAP3 DUP5 ADD SWAP3 PUSH1 0x60 SWAP3 SWAP1 SWAP3 ADD SWAP2 PUSH1 0x1 ADD PUSH2 0x87D JUMP JUMPDEST POP SWAP1 SWAP7 SWAP6 POP POP POP POP POP POP JUMP JUMPDEST DUP3 ISZERO ISZERO DUP2 MSTORE PUSH1 0x80 DUP2 ADD PUSH2 0x6EA PUSH1 0x20 DUP4 ADD DUP5 DUP1 MLOAD DUP3 MSTORE PUSH1 0x20 DUP1 DUP3 ADD MLOAD SWAP1 DUP4 ADD MSTORE PUSH1 0x40 SWAP1 DUP2 ADD MLOAD SWAP2 ADD MSTORE JUMP JUMPDEST PUSH1 0x0 DUP3 NOT DUP3 GT ISZERO PUSH2 0x900 JUMPI PUSH2 0x900 PUSH2 0x937 JUMP JUMPDEST POP ADD SWAP1 JUMP JUMPDEST PUSH1 0x0 DUP3 DUP3 LT ISZERO PUSH2 0x917 JUMPI PUSH2 0x917 PUSH2 0x937 JUMP JUMPDEST POP SUB SWAP1 JUMP JUMPDEST PUSH1 0x0 PUSH1 0x0 NOT DUP3 EQ ISZERO PUSH2 0x930 JUMPI PUSH2 0x930 PUSH2 0x937 JUMP JUMPDEST POP PUSH1 0x1 ADD SWAP1 JUMP JUMPDEST PUSH4 0x4E487B71 PUSH1 0xE0 SHL PUSH1 0x0 MSTORE PUSH1 0x11 PUSH1 0x4 MSTORE PUSH1 0x24 PUSH1 0x0 REVERT JUMPDEST PUSH4 0x4E487B71 PUSH1 0xE0 SHL PUSH1 0x0 MSTORE PUSH1 0x32 PUSH1 0x4 MSTORE PUSH1 0x24 PUSH1 0x0 REVERT JUMPDEST PUSH4 0x4E487B71 PUSH1 0xE0 SHL PUSH1 0x0 MSTORE PUSH1 0x41 PUSH1 0x4 MSTORE PUSH1 0x24 PUSH1 0x0 REVERT INVALID LOG2 PUSH5 0x6970667358 0x22 SLT KECCAK256 SUB SWAP2 0xC1 PUSH11 0xFD68C643409529B092166F 0xE SSTORE 0xD3 PUSH13 0xEB1995E45C93ADD54BCAAF4B3 PUSH5 0x736F6C6343 STOP ADDMOD SMOD STOP CALLER ",
  "sha1": "1f8b0664109c20c2a553493701ada005ac072a35",
  "source": "// SPDX-License-Identifier: MIT\npragma solidity >=0.7.0 <0.9.0;\n\nimport \"./CertificateAuthorization.sol\";\nimport \"./Helper.sol\";\n\ncontract CertificateHandler is CertificateAuthorization, Helper {\n\n    constructor(address registrySC) CertificateAuthorization(registrySC){}\n    \n    function registerCertificate(\n        bytes32 certificate_hash, \n        bytes32 holder_id,\n        string memory payload,\n        bytes32 data_address\n    )\n        public\n        grantAccess\n        returns (bool success)\n    {\n        uint256 index = isCertificateExist(certificate_hash, holder_to_certificates[holder_id]);\n        if (index > 0) {\n            emit IsSuccess(false,\"already\");\n            emit certificateExist(\n                true,\n                holder_to_certificates[holder_id][index-1]\n            );\n            return false;\n        } else {\n            if (!compareHash(certificate_hash, payload, holder_id)){\n                emit IsSuccess(false,\"failhash\");\n                return false;\n            }\n            uint256 timestamp = block.timestamp;\n            holder_to_certificates[holder_id].push(\n            COV_CERTIFICATE(certificate_hash,data_address,timestamp));\n            emit IsSuccess(true,\"stored\");\n            emit timestampEvent(timestamp);\n            return true;\n        }\n    }\n\n    function verifyCertificate(bytes32 certificate_hash,bytes32 holder_id) public view returns(bool,COV_CERTIFICATE memory){\n        uint256 index = isCertificateExist(certificate_hash, holder_to_certificates[holder_id]);\n        if(index>0){\n            return (true,holder_to_certificates[holder_id][index-1]);\n        }\n        return (false,holder_to_certificates[holder_id][index-1]);\n    }\n\n    function getCertificatesByUser(bytes32 holder_id) \n        public\n        view\n        returns(COV_CERTIFICATE[] memory certificate_data)\n    {\n        return holder_to_certificates[holder_id];\n    }\n\n\n}",
  "sourcePath": "contracts/Certificate/Handler.sol",
  "type": "contract"
}