{
  "abi": [
    {
      "anonymous": false,
      "inputs": [
        {
          "indexed": false,
          "internalType": "bool",
          "name": "value",
          "type": "bool"
        },
        {
          "indexed": false,
          "internalType": "bytes32",
          "name": "hashData",
          "type": "bytes32"
        },
        {
          "indexed": false,
          "internalType": "address",
          "name": "issuer",
          "type": "address"
        },
        {
          "indexed": false,
          "internalType": "string",
          "name": "message",
          "type": "string"
        }
      ],
      "name": "IsSuccess",
      "type": "event"
    },
    {
      "inputs": [
        {
          "internalType": "address",
          "name": "_address",
          "type": "address"
        }
      ],
      "name": "checkIssuerExist",
      "outputs": [
        {
          "internalType": "bool",
          "name": "",
          "type": "bool"
        }
      ],
      "stateMutability": "view",
      "type": "function"
    },
    {
      "inputs": [],
      "name": "owner",
      "outputs": [
        {
          "internalType": "address payable",
          "name": "",
          "type": "address"
        }
      ],
      "stateMutability": "view",
      "type": "function"
    },
    {
      "inputs": [
        {
          "internalType": "address",
          "name": "_address",
          "type": "address"
        }
      ],
      "name": "registerAuthorizeUser",
      "outputs": [
        {
          "internalType": "bool",
          "name": "success",
          "type": "bool"
        }
      ],
      "stateMutability": "nonpayable",
      "type": "function"
    },
    {
      "inputs": [
        {
          "internalType": "address",
          "name": "issuer",
          "type": "address"
        },
        {
          "internalType": "bytes32",
          "name": "_hashData",
          "type": "bytes32"
        }
      ],
      "name": "registerIssuer",
      "outputs": [
        {
          "internalType": "bool",
          "name": "success",
          "type": "bool"
        }
      ],
      "stateMutability": "nonpayable",
      "type": "function"
    }
  ],
  "bytecode": "608060405234801561001057600080fd5b50600080546001600160a01b03191633179055610355806100326000396000f3fe608060405234801561001057600080fd5b506004361061004c5760003560e01c80636210d360146100515780637547402a146100795780638da5cb5b146100a457806392067121146100cf575b600080fd5b61006461005f3660046102d3565b6100e2565b60405190151581526020015b60405180910390f35b6100646100873660046102d3565b6001600160a01b0316600090815260026020526040902054151590565b6000546100b7906001600160a01b031681565b6040516001600160a01b039091168152602001610070565b6100646100dd3660046102f5565b61016b565b600080546001600160a01b031633148061010b57503360009081526001602052604090205460ff165b61011457600080fd5b6001600160a01b03821660009081526001602081905260409091205460ff1615151461016257506001600160a01b03166000908152600160208190526040909120805460ff19168217905590565b5060005b919050565b600080546001600160a01b031633148061019457503360009081526001602052604090205460ff165b61019d57600080fd5b6001600160a01b03831660009081526002602052604090205415610237576040805160008152602081018490526001600160a01b0385168183015260806060820181905260139082015272185b1b1c9958591e481c9959da5cdd195c9959606a1b60a082015290517f3a5e9cf671f12108422b0b314d2755338a4779c3f3d01ae983f8e6a19970b0859181900360c00190a15060006102b6565b6001600160a01b03831660008181526002602090815260409182902085905581516001815290810185905280820192909252608060608301819052600690830152651cdd1bdc995960d21b60a0830152517f3a5e9cf671f12108422b0b314d2755338a4779c3f3d01ae983f8e6a19970b0859181900360c00190a15060015b92915050565b80356001600160a01b038116811461016657600080fd5b6000602082840312156102e557600080fd5b6102ee826102bc565b9392505050565b6000806040838503121561030857600080fd5b610311836102bc565b94602093909301359350505056fea26469706673582212201c8a8d3522b2ce4eb021c8b142dee19617b18e1e08b334f713cea8506ba9059664736f6c63430008070033",
  "bytecodeSha1": "083d2bf0e231df07c3a32403f40bcc7cb516f092",
  "compiler": {
    "evm_version": "istanbul",
    "optimizer": {
      "enabled": true,
      "runs": 200
    },
    "version": "0.8.7+commit.e28d00a7"
  },
  "contractName": "Registry",
  "language": "Solidity",
  "natspec": {
    "kind": "dev",
    "methods": {},
    "version": 1
  },
  "opcodes": "PUSH1 0x80 PUSH1 0x40 MSTORE CALLVALUE DUP1 ISZERO PUSH2 0x10 JUMPI PUSH1 0x0 DUP1 REVERT JUMPDEST POP PUSH1 0x4 CALLDATASIZE LT PUSH2 0x4C JUMPI PUSH1 0x0 CALLDATALOAD PUSH1 0xE0 SHR DUP1 PUSH4 0x6210D360 EQ PUSH2 0x51 JUMPI DUP1 PUSH4 0x7547402A EQ PUSH2 0x79 JUMPI DUP1 PUSH4 0x8DA5CB5B EQ PUSH2 0xA4 JUMPI DUP1 PUSH4 0x92067121 EQ PUSH2 0xCF JUMPI JUMPDEST PUSH1 0x0 DUP1 REVERT JUMPDEST PUSH2 0x64 PUSH2 0x5F CALLDATASIZE PUSH1 0x4 PUSH2 0x2D3 JUMP JUMPDEST PUSH2 0xE2 JUMP JUMPDEST PUSH1 0x40 MLOAD SWAP1 ISZERO ISZERO DUP2 MSTORE PUSH1 0x20 ADD JUMPDEST PUSH1 0x40 MLOAD DUP1 SWAP2 SUB SWAP1 RETURN JUMPDEST PUSH2 0x64 PUSH2 0x87 CALLDATASIZE PUSH1 0x4 PUSH2 0x2D3 JUMP JUMPDEST PUSH1 0x1 PUSH1 0x1 PUSH1 0xA0 SHL SUB AND PUSH1 0x0 SWAP1 DUP2 MSTORE PUSH1 0x2 PUSH1 0x20 MSTORE PUSH1 0x40 SWAP1 KECCAK256 SLOAD ISZERO ISZERO SWAP1 JUMP JUMPDEST PUSH1 0x0 SLOAD PUSH2 0xB7 SWAP1 PUSH1 0x1 PUSH1 0x1 PUSH1 0xA0 SHL SUB AND DUP2 JUMP JUMPDEST PUSH1 0x40 MLOAD PUSH1 0x1 PUSH1 0x1 PUSH1 0xA0 SHL SUB SWAP1 SWAP2 AND DUP2 MSTORE PUSH1 0x20 ADD PUSH2 0x70 JUMP JUMPDEST PUSH2 0x64 PUSH2 0xDD CALLDATASIZE PUSH1 0x4 PUSH2 0x2F5 JUMP JUMPDEST PUSH2 0x16B JUMP JUMPDEST PUSH1 0x0 DUP1 SLOAD PUSH1 0x1 PUSH1 0x1 PUSH1 0xA0 SHL SUB AND CALLER EQ DUP1 PUSH2 0x10B JUMPI POP CALLER PUSH1 0x0 SWAP1 DUP2 MSTORE PUSH1 0x1 PUSH1 0x20 MSTORE PUSH1 0x40 SWAP1 KECCAK256 SLOAD PUSH1 0xFF AND JUMPDEST PUSH2 0x114 JUMPI PUSH1 0x0 DUP1 REVERT JUMPDEST PUSH1 0x1 PUSH1 0x1 PUSH1 0xA0 SHL SUB DUP3 AND PUSH1 0x0 SWAP1 DUP2 MSTORE PUSH1 0x1 PUSH1 0x20 DUP2 SWAP1 MSTORE PUSH1 0x40 SWAP1 SWAP2 KECCAK256 SLOAD PUSH1 0xFF AND ISZERO ISZERO EQ PUSH2 0x162 JUMPI POP PUSH1 0x1 PUSH1 0x1 PUSH1 0xA0 SHL SUB AND PUSH1 0x0 SWAP1 DUP2 MSTORE PUSH1 0x1 PUSH1 0x20 DUP2 SWAP1 MSTORE PUSH1 0x40 SWAP1 SWAP2 KECCAK256 DUP1 SLOAD PUSH1 0xFF NOT AND DUP3 OR SWAP1 SSTORE SWAP1 JUMP JUMPDEST POP PUSH1 0x0 JUMPDEST SWAP2 SWAP1 POP JUMP JUMPDEST PUSH1 0x0 DUP1 SLOAD PUSH1 0x1 PUSH1 0x1 PUSH1 0xA0 SHL SUB AND CALLER EQ DUP1 PUSH2 0x194 JUMPI POP CALLER PUSH1 0x0 SWAP1 DUP2 MSTORE PUSH1 0x1 PUSH1 0x20 MSTORE PUSH1 0x40 SWAP1 KECCAK256 SLOAD PUSH1 0xFF AND JUMPDEST PUSH2 0x19D JUMPI PUSH1 0x0 DUP1 REVERT JUMPDEST PUSH1 0x1 PUSH1 0x1 PUSH1 0xA0 SHL SUB DUP4 AND PUSH1 0x0 SWAP1 DUP2 MSTORE PUSH1 0x2 PUSH1 0x20 MSTORE PUSH1 0x40 SWAP1 KECCAK256 SLOAD ISZERO PUSH2 0x237 JUMPI PUSH1 0x40 DUP1 MLOAD PUSH1 0x0 DUP2 MSTORE PUSH1 0x20 DUP2 ADD DUP5 SWAP1 MSTORE PUSH1 0x1 PUSH1 0x1 PUSH1 0xA0 SHL SUB DUP6 AND DUP2 DUP4 ADD MSTORE PUSH1 0x80 PUSH1 0x60 DUP3 ADD DUP2 SWAP1 MSTORE PUSH1 0x13 SWAP1 DUP3 ADD MSTORE PUSH19 0x185B1B1C9958591E481C9959DA5CDD195C9959 PUSH1 0x6A SHL PUSH1 0xA0 DUP3 ADD MSTORE SWAP1 MLOAD PUSH32 0x3A5E9CF671F12108422B0B314D2755338A4779C3F3D01AE983F8E6A19970B085 SWAP2 DUP2 SWAP1 SUB PUSH1 0xC0 ADD SWAP1 LOG1 POP PUSH1 0x0 PUSH2 0x2B6 JUMP JUMPDEST PUSH1 0x1 PUSH1 0x1 PUSH1 0xA0 SHL SUB DUP4 AND PUSH1 0x0 DUP2 DUP2 MSTORE PUSH1 0x2 PUSH1 0x20 SWAP1 DUP2 MSTORE PUSH1 0x40 SWAP2 DUP3 SWAP1 KECCAK256 DUP6 SWAP1 SSTORE DUP2 MLOAD PUSH1 0x1 DUP2 MSTORE SWAP1 DUP2 ADD DUP6 SWAP1 MSTORE DUP1 DUP3 ADD SWAP3 SWAP1 SWAP3 MSTORE PUSH1 0x80 PUSH1 0x60 DUP4 ADD DUP2 SWAP1 MSTORE PUSH1 0x6 SWAP1 DUP4 ADD MSTORE PUSH6 0x1CDD1BDC9959 PUSH1 0xD2 SHL PUSH1 0xA0 DUP4 ADD MSTORE MLOAD PUSH32 0x3A5E9CF671F12108422B0B314D2755338A4779C3F3D01AE983F8E6A19970B085 SWAP2 DUP2 SWAP1 SUB PUSH1 0xC0 ADD SWAP1 LOG1 POP PUSH1 0x1 JUMPDEST SWAP3 SWAP2 POP POP JUMP JUMPDEST DUP1 CALLDATALOAD PUSH1 0x1 PUSH1 0x1 PUSH1 0xA0 SHL SUB DUP2 AND DUP2 EQ PUSH2 0x166 JUMPI PUSH1 0x0 DUP1 REVERT JUMPDEST PUSH1 0x0 PUSH1 0x20 DUP3 DUP5 SUB SLT ISZERO PUSH2 0x2E5 JUMPI PUSH1 0x0 DUP1 REVERT JUMPDEST PUSH2 0x2EE DUP3 PUSH2 0x2BC JUMP JUMPDEST SWAP4 SWAP3 POP POP POP JUMP JUMPDEST PUSH1 0x0 DUP1 PUSH1 0x40 DUP4 DUP6 SUB SLT ISZERO PUSH2 0x308 JUMPI PUSH1 0x0 DUP1 REVERT JUMPDEST PUSH2 0x311 DUP4 PUSH2 0x2BC JUMP JUMPDEST SWAP5 PUSH1 0x20 SWAP4 SWAP1 SWAP4 ADD CALLDATALOAD SWAP4 POP POP POP JUMP INVALID LOG2 PUSH5 0x6970667358 0x22 SLT KECCAK256 SHR DUP11 DUP14 CALLDATALOAD 0x22 0xB2 0xCE 0x4E 0xB0 0x21 0xC8 0xB1 TIMESTAMP 0xDE 0xE1 SWAP7 OR 0xB1 DUP15 0x1E ADDMOD 0xB3 CALLVALUE 0xF7 SGT 0xCE 0xA8 POP PUSH12 0xA9059664736F6C6343000807 STOP CALLER ",
  "sha1": "6f27e2173a00990f7d51fb8808101842b6b885db",
  "source": "// SPDX-License-Identifier: MIT\npragma solidity >=0.7.0 <0.9.0;\n\nimport \"./IssuerData.sol\";\n\ncontract Registry is Issuer{\n}",
  "sourcePath": "contracts/Registry/Registry.sol",
  "type": "contract"
}