{
  "abi": [
    {
      "inputs": [],
      "stateMutability": "payable",
      "type": "constructor"
    },
    {
      "inputs": [],
      "name": "owner",
      "outputs": [
        {
          "internalType": "address payable",
          "name": "",
          "type": "address"
        }
      ],
      "stateMutability": "view",
      "type": "function"
    },
    {
      "inputs": [
        {
          "internalType": "address",
          "name": "_address",
          "type": "address"
        }
      ],
      "name": "registerAuthorizeUser",
      "outputs": [
        {
          "internalType": "bool",
          "name": "success",
          "type": "bool"
        }
      ],
      "stateMutability": "nonpayable",
      "type": "function"
    }
  ],
  "bytecode": "6080604052600080546001600160a01b0319163317905561017c806100256000396000f3fe608060405234801561001057600080fd5b50600436106100365760003560e01c80636210d3601461003b5780638da5cb5b14610063575b600080fd5b61004e610049366004610116565b61008e565b60405190151581526020015b60405180910390f35b600054610076906001600160a01b031681565b6040516001600160a01b03909116815260200161005a565b600080546001600160a01b03163314806100b757503360009081526001602052604090205460ff165b6100c057600080fd5b6001600160a01b03821660009081526001602081905260409091205460ff1615151461010e57506001600160a01b03166000908152600160208190526040909120805460ff19168217905590565b506000919050565b60006020828403121561012857600080fd5b81356001600160a01b038116811461013f57600080fd5b939250505056fea26469706673582212202419ed908d91de32a2cd04ddcf64d356426f621b948e7baed75061a467ecb0ad64736f6c63430008070033",
  "bytecodeSha1": "0196752548d7ffae0d33c7024d506a6aa0e09cce",
  "compiler": {
    "evm_version": "istanbul",
    "optimizer": {
      "enabled": true,
      "runs": 200
    },
    "version": "0.8.7+commit.e28d00a7"
  },
  "contractName": "RegistryAuthorization",
  "language": "Solidity",
  "natspec": {
    "kind": "dev",
    "methods": {},
    "version": 1
  },
  "opcodes": "PUSH1 0x80 PUSH1 0x40 MSTORE CALLVALUE DUP1 ISZERO PUSH2 0x10 JUMPI PUSH1 0x0 DUP1 REVERT JUMPDEST POP PUSH1 0x4 CALLDATASIZE LT PUSH2 0x36 JUMPI PUSH1 0x0 CALLDATALOAD PUSH1 0xE0 SHR DUP1 PUSH4 0x6210D360 EQ PUSH2 0x3B JUMPI DUP1 PUSH4 0x8DA5CB5B EQ PUSH2 0x63 JUMPI JUMPDEST PUSH1 0x0 DUP1 REVERT JUMPDEST PUSH2 0x4E PUSH2 0x49 CALLDATASIZE PUSH1 0x4 PUSH2 0x116 JUMP JUMPDEST PUSH2 0x8E JUMP JUMPDEST PUSH1 0x40 MLOAD SWAP1 ISZERO ISZERO DUP2 MSTORE PUSH1 0x20 ADD JUMPDEST PUSH1 0x40 MLOAD DUP1 SWAP2 SUB SWAP1 RETURN JUMPDEST PUSH1 0x0 SLOAD PUSH2 0x76 SWAP1 PUSH1 0x1 PUSH1 0x1 PUSH1 0xA0 SHL SUB AND DUP2 JUMP JUMPDEST PUSH1 0x40 MLOAD PUSH1 0x1 PUSH1 0x1 PUSH1 0xA0 SHL SUB SWAP1 SWAP2 AND DUP2 MSTORE PUSH1 0x20 ADD PUSH2 0x5A JUMP JUMPDEST PUSH1 0x0 DUP1 SLOAD PUSH1 0x1 PUSH1 0x1 PUSH1 0xA0 SHL SUB AND CALLER EQ DUP1 PUSH2 0xB7 JUMPI POP CALLER PUSH1 0x0 SWAP1 DUP2 MSTORE PUSH1 0x1 PUSH1 0x20 MSTORE PUSH1 0x40 SWAP1 KECCAK256 SLOAD PUSH1 0xFF AND JUMPDEST PUSH2 0xC0 JUMPI PUSH1 0x0 DUP1 REVERT JUMPDEST PUSH1 0x1 PUSH1 0x1 PUSH1 0xA0 SHL SUB DUP3 AND PUSH1 0x0 SWAP1 DUP2 MSTORE PUSH1 0x1 PUSH1 0x20 DUP2 SWAP1 MSTORE PUSH1 0x40 SWAP1 SWAP2 KECCAK256 SLOAD PUSH1 0xFF AND ISZERO ISZERO EQ PUSH2 0x10E JUMPI POP PUSH1 0x1 PUSH1 0x1 PUSH1 0xA0 SHL SUB AND PUSH1 0x0 SWAP1 DUP2 MSTORE PUSH1 0x1 PUSH1 0x20 DUP2 SWAP1 MSTORE PUSH1 0x40 SWAP1 SWAP2 KECCAK256 DUP1 SLOAD PUSH1 0xFF NOT AND DUP3 OR SWAP1 SSTORE SWAP1 JUMP JUMPDEST POP PUSH1 0x0 SWAP2 SWAP1 POP JUMP JUMPDEST PUSH1 0x0 PUSH1 0x20 DUP3 DUP5 SUB SLT ISZERO PUSH2 0x128 JUMPI PUSH1 0x0 DUP1 REVERT JUMPDEST DUP2 CALLDATALOAD PUSH1 0x1 PUSH1 0x1 PUSH1 0xA0 SHL SUB DUP2 AND DUP2 EQ PUSH2 0x13F JUMPI PUSH1 0x0 DUP1 REVERT JUMPDEST SWAP4 SWAP3 POP POP POP JUMP INVALID LOG2 PUSH5 0x6970667358 0x22 SLT KECCAK256 0x24 NOT 0xED SWAP1 DUP14 SWAP2 0xDE ORIGIN LOG2 0xCD DIV 0xDD 0xCF PUSH5 0xD356426F62 SHL SWAP5 DUP15 PUSH28 0xAED75061A467ECB0AD64736F6C634300080700330000000000000000 ",
  "sha1": "9edbedd0999aac0930cb3295f423799451aed429",
  "source": "// SPDX-License-Identifier: MIT\npragma solidity >=0.7.0 <0.9.0;\n\n// this contract provides authorization for registry smart contract\n\n\ncontract RegistryAuthorization {\n\n    address payable public owner;\n    mapping(address => bool ) internal authorize_user;\n    \n    mapping (address=>bytes32) issuerMapping;\n\n    constructor() payable {\n        owner = payable(msg.sender);\n    }\n\n    //grant authorization only for authorize user to perform issuer registration. \n    modifier grantAccess{\n        require(msg.sender == owner || authorize_user[msg.sender]);\n        _;\n    }\n\n\n    function registerAuthorizeUser(address _address) public grantAccess returns(bool success) {\n        if(!(authorize_user[_address]==true)){\n            authorize_user[_address] = true;\n            return true;\n        }else{\n            return false;\n        }\n    }\n}",
  "sourcePath": "contracts/Registry/RegistryAuthorization.sol",
  "type": "contract"
}