{
  "abi": [
    {
      "anonymous": false,
      "inputs": [
        {
          "indexed": false,
          "internalType": "bool",
          "name": "isValid",
          "type": "bool"
        }
      ],
      "name": "isTrue",
      "type": "event"
    },
    {
      "inputs": [
        {
          "internalType": "string",
          "name": "testaroo",
          "type": "string"
        },
        {
          "internalType": "string",
          "name": "testaroo2",
          "type": "string"
        }
      ],
      "name": "testing",
      "outputs": [
        {
          "internalType": "bool",
          "name": "",
          "type": "bool"
        }
      ],
      "stateMutability": "nonpayable",
      "type": "function"
    }
  ],
  "bytecode": "60806040527f0ad8cde967ca66490ee580f1b0e0abae68581d7c17ac4497ff0f79580442bd3760005534801561003457600080fd5b5061025a806100446000396000f3fe608060405234801561001057600080fd5b506004361061002b5760003560e01c80634ebf7f0e14610030575b600080fd5b61004361003e366004610152565b610057565b604051901515815260200160405180910390f35b600080838360405160200161006d9291906101f1565b60408051601f198184030181529082905280516020918201206000548114835292507f74f13070e50416a85df7e6bfe7f48888d7c026a9cf531e4f13b84555a81441e0910160405180910390a1600054149392505050565b600082601f8301126100d657600080fd5b813567ffffffffffffffff808211156100f1576100f161020e565b604051601f8301601f19908116603f011681019082821181831017156101195761011961020e565b8160405283815286602085880101111561013257600080fd5b836020870160208301376000602085830101528094505050505092915050565b6000806040838503121561016557600080fd5b823567ffffffffffffffff8082111561017d57600080fd5b610189868387016100c5565b9350602085013591508082111561019f57600080fd5b506101ac858286016100c5565b9150509250929050565b6000815160005b818110156101d757602081850181015186830152016101bd565b818111156101e6576000828601525b509290920192915050565b600061020661020083866101b6565b846101b6565b949350505050565b634e487b7160e01b600052604160045260246000fdfea2646970667358221220db0fce2979331d77816ebadb594354d7794bed7c84813c916f284021029d638f64736f6c63430008070033",
  "bytecodeSha1": "87c3f6f349218a30a31f9437954fa824f0c52d4b",
  "compiler": {
    "evm_version": "istanbul",
    "optimizer": {
      "enabled": true,
      "runs": 200
    },
    "version": "0.8.7+commit.e28d00a7"
  },
  "contractName": "TestingCert",
  "language": "Solidity",
  "natspec": {
    "kind": "dev",
    "methods": {},
    "version": 1
  },
  "opcodes": "PUSH1 0x80 PUSH1 0x40 MSTORE CALLVALUE DUP1 ISZERO PUSH2 0x10 JUMPI PUSH1 0x0 DUP1 REVERT JUMPDEST POP PUSH1 0x4 CALLDATASIZE LT PUSH2 0x2B JUMPI PUSH1 0x0 CALLDATALOAD PUSH1 0xE0 SHR DUP1 PUSH4 0x4EBF7F0E EQ PUSH2 0x30 JUMPI JUMPDEST PUSH1 0x0 DUP1 REVERT JUMPDEST PUSH2 0x43 PUSH2 0x3E CALLDATASIZE PUSH1 0x4 PUSH2 0x152 JUMP JUMPDEST PUSH2 0x57 JUMP JUMPDEST PUSH1 0x40 MLOAD SWAP1 ISZERO ISZERO DUP2 MSTORE PUSH1 0x20 ADD PUSH1 0x40 MLOAD DUP1 SWAP2 SUB SWAP1 RETURN JUMPDEST PUSH1 0x0 DUP1 DUP4 DUP4 PUSH1 0x40 MLOAD PUSH1 0x20 ADD PUSH2 0x6D SWAP3 SWAP2 SWAP1 PUSH2 0x1F1 JUMP JUMPDEST PUSH1 0x40 DUP1 MLOAD PUSH1 0x1F NOT DUP2 DUP5 SUB ADD DUP2 MSTORE SWAP1 DUP3 SWAP1 MSTORE DUP1 MLOAD PUSH1 0x20 SWAP2 DUP3 ADD KECCAK256 PUSH1 0x0 SLOAD DUP2 EQ DUP4 MSTORE SWAP3 POP PUSH32 0x74F13070E50416A85DF7E6BFE7F48888D7C026A9CF531E4F13B84555A81441E0 SWAP2 ADD PUSH1 0x40 MLOAD DUP1 SWAP2 SUB SWAP1 LOG1 PUSH1 0x0 SLOAD EQ SWAP4 SWAP3 POP POP POP JUMP JUMPDEST PUSH1 0x0 DUP3 PUSH1 0x1F DUP4 ADD SLT PUSH2 0xD6 JUMPI PUSH1 0x0 DUP1 REVERT JUMPDEST DUP2 CALLDATALOAD PUSH8 0xFFFFFFFFFFFFFFFF DUP1 DUP3 GT ISZERO PUSH2 0xF1 JUMPI PUSH2 0xF1 PUSH2 0x20E JUMP JUMPDEST PUSH1 0x40 MLOAD PUSH1 0x1F DUP4 ADD PUSH1 0x1F NOT SWAP1 DUP2 AND PUSH1 0x3F ADD AND DUP2 ADD SWAP1 DUP3 DUP3 GT DUP2 DUP4 LT OR ISZERO PUSH2 0x119 JUMPI PUSH2 0x119 PUSH2 0x20E JUMP JUMPDEST DUP2 PUSH1 0x40 MSTORE DUP4 DUP2 MSTORE DUP7 PUSH1 0x20 DUP6 DUP9 ADD ADD GT ISZERO PUSH2 0x132 JUMPI PUSH1 0x0 DUP1 REVERT JUMPDEST DUP4 PUSH1 0x20 DUP8 ADD PUSH1 0x20 DUP4 ADD CALLDATACOPY PUSH1 0x0 PUSH1 0x20 DUP6 DUP4 ADD ADD MSTORE DUP1 SWAP5 POP POP POP POP POP SWAP3 SWAP2 POP POP JUMP JUMPDEST PUSH1 0x0 DUP1 PUSH1 0x40 DUP4 DUP6 SUB SLT ISZERO PUSH2 0x165 JUMPI PUSH1 0x0 DUP1 REVERT JUMPDEST DUP3 CALLDATALOAD PUSH8 0xFFFFFFFFFFFFFFFF DUP1 DUP3 GT ISZERO PUSH2 0x17D JUMPI PUSH1 0x0 DUP1 REVERT JUMPDEST PUSH2 0x189 DUP7 DUP4 DUP8 ADD PUSH2 0xC5 JUMP JUMPDEST SWAP4 POP PUSH1 0x20 DUP6 ADD CALLDATALOAD SWAP2 POP DUP1 DUP3 GT ISZERO PUSH2 0x19F JUMPI PUSH1 0x0 DUP1 REVERT JUMPDEST POP PUSH2 0x1AC DUP6 DUP3 DUP7 ADD PUSH2 0xC5 JUMP JUMPDEST SWAP2 POP POP SWAP3 POP SWAP3 SWAP1 POP JUMP JUMPDEST PUSH1 0x0 DUP2 MLOAD PUSH1 0x0 JUMPDEST DUP2 DUP2 LT ISZERO PUSH2 0x1D7 JUMPI PUSH1 0x20 DUP2 DUP6 ADD DUP2 ADD MLOAD DUP7 DUP4 ADD MSTORE ADD PUSH2 0x1BD JUMP JUMPDEST DUP2 DUP2 GT ISZERO PUSH2 0x1E6 JUMPI PUSH1 0x0 DUP3 DUP7 ADD MSTORE JUMPDEST POP SWAP3 SWAP1 SWAP3 ADD SWAP3 SWAP2 POP POP JUMP JUMPDEST PUSH1 0x0 PUSH2 0x206 PUSH2 0x200 DUP4 DUP7 PUSH2 0x1B6 JUMP JUMPDEST DUP5 PUSH2 0x1B6 JUMP JUMPDEST SWAP5 SWAP4 POP POP POP POP JUMP JUMPDEST PUSH4 0x4E487B71 PUSH1 0xE0 SHL PUSH1 0x0 MSTORE PUSH1 0x41 PUSH1 0x4 MSTORE PUSH1 0x24 PUSH1 0x0 REVERT INVALID LOG2 PUSH5 0x6970667358 0x22 SLT KECCAK256 0xDB 0xF 0xCE 0x29 PUSH26 0x331D77816EBADB594354D7794BED7C84813C916F284021029D63 DUP16 PUSH5 0x736F6C6343 STOP ADDMOD SMOD STOP CALLER ",
  "sha1": "c857b0b202d33bc167170211a65cc8954fc8a953",
  "source": "// SPDX-License-Identifier: MIT\npragma solidity >=0.7.0 <0.9.0;\n\n\ncontract TestingCert { \n    bytes32 private hash_data = 0x0ad8cde967ca66490ee580f1b0e0abae68581d7c17ac4497ff0f79580442bd37;\n    event isTrue(\n        bool isValid\n    );\n    function testing(string memory testaroo,string memory testaroo2) public returns(bool){\n        bytes32 generated_hash = keccak256(abi.encodePacked(testaroo, testaroo2));\n        emit isTrue(hash_data == generated_hash);\n        return hash_data == generated_hash;\n    }\n}",
  "sourcePath": "contracts/TestingCert/TestingCert.sol",
  "type": "contract"
}