{
  "abi": [
    {
      "anonymous": false,
      "inputs": [
        {
          "indexed": false,
          "internalType": "bool",
          "name": "value",
          "type": "bool"
        },
        {
          "indexed": false,
          "internalType": "bytes32",
          "name": "hashData",
          "type": "bytes32"
        },
        {
          "indexed": false,
          "internalType": "address",
          "name": "issuer",
          "type": "address"
        },
        {
          "indexed": false,
          "internalType": "string",
          "name": "message",
          "type": "string"
        }
      ],
      "name": "IsSuccess",
      "type": "event"
    },
    {
      "inputs": [
        {
          "internalType": "address",
          "name": "_address",
          "type": "address"
        }
      ],
      "name": "checkIsRegulator",
      "outputs": [
        {
          "internalType": "bool",
          "name": "",
          "type": "bool"
        }
      ],
      "stateMutability": "view",
      "type": "function"
    },
    {
      "inputs": [
        {
          "internalType": "address",
          "name": "_address",
          "type": "address"
        }
      ],
      "name": "checkIssuerExist",
      "outputs": [
        {
          "internalType": "bool",
          "name": "",
          "type": "bool"
        }
      ],
      "stateMutability": "view",
      "type": "function"
    },
    {
      "inputs": [],
      "name": "owner",
      "outputs": [
        {
          "internalType": "address payable",
          "name": "",
          "type": "address"
        }
      ],
      "stateMutability": "view",
      "type": "function"
    },
    {
      "inputs": [
        {
          "internalType": "address",
          "name": "issuer",
          "type": "address"
        },
        {
          "internalType": "bytes32",
          "name": "_hashData",
          "type": "bytes32"
        }
      ],
      "name": "registerIssuer",
      "outputs": [
        {
          "internalType": "bool",
          "name": "success",
          "type": "bool"
        }
      ],
      "stateMutability": "nonpayable",
      "type": "function"
    }
  ],
  "bytecode": "608060405234801561001057600080fd5b50600080546001600160a01b031916331790556102c4806100326000396000f3fe608060405234801561001057600080fd5b506004361061004c5760003560e01c80637547402a146100515780638da5cb5b1461009157806392067121146100bc578063def0f694146100cf575b600080fd5b61007c61005f366004610242565b6001600160a01b0316600090815260016020526040902054151590565b60405190151581526020015b60405180910390f35b6000546100a4906001600160a01b031681565b6040516001600160a01b039091168152602001610088565b61007c6100ca366004610264565b6100f1565b61007c6100dd366004610242565b6000546001600160a01b0391821691161490565b600080546001600160a01b0316331461010957600080fd5b6001600160a01b038316600090815260016020526040902054156101a3576040805160008152602081018490526001600160a01b0385168183015260806060820181905260139082015272185b1b1c9958591e481c9959da5cdd195c9959606a1b60a082015290517f3a5e9cf671f12108422b0b314d2755338a4779c3f3d01ae983f8e6a19970b0859181900360c00190a1506000610220565b6001600160a01b0383166000818152600160208181526040928390208690558251918252810185905280820192909252608060608301819052600690830152651cdd1bdc995960d21b60a0830152517f3a5e9cf671f12108422b0b314d2755338a4779c3f3d01ae983f8e6a19970b0859181900360c00190a15060015b92915050565b80356001600160a01b038116811461023d57600080fd5b919050565b60006020828403121561025457600080fd5b61025d82610226565b9392505050565b6000806040838503121561027757600080fd5b61028083610226565b94602093909301359350505056fea264697066735822122001dee7fbfee75d5a1b0cb978c5c41ed07af9c97316f1335f8c767b742af5621964736f6c63430008070033",
  "bytecodeSha1": "a73777348007ed15db023635ca3b5ded5a6c45b0",
  "compiler": {
    "evm_version": "istanbul",
    "optimizer": {
      "enabled": true,
      "runs": 200
    },
    "version": "0.8.7+commit.e28d00a7"
  },
  "contractName": "IssuerHandler",
  "language": "Solidity",
  "natspec": {
    "kind": "dev",
    "methods": {},
    "version": 1
  },
  "opcodes": "PUSH1 0x80 PUSH1 0x40 MSTORE CALLVALUE DUP1 ISZERO PUSH2 0x10 JUMPI PUSH1 0x0 DUP1 REVERT JUMPDEST POP PUSH1 0x4 CALLDATASIZE LT PUSH2 0x4C JUMPI PUSH1 0x0 CALLDATALOAD PUSH1 0xE0 SHR DUP1 PUSH4 0x7547402A EQ PUSH2 0x51 JUMPI DUP1 PUSH4 0x8DA5CB5B EQ PUSH2 0x91 JUMPI DUP1 PUSH4 0x92067121 EQ PUSH2 0xBC JUMPI DUP1 PUSH4 0xDEF0F694 EQ PUSH2 0xCF JUMPI JUMPDEST PUSH1 0x0 DUP1 REVERT JUMPDEST PUSH2 0x7C PUSH2 0x5F CALLDATASIZE PUSH1 0x4 PUSH2 0x242 JUMP JUMPDEST PUSH1 0x1 PUSH1 0x1 PUSH1 0xA0 SHL SUB AND PUSH1 0x0 SWAP1 DUP2 MSTORE PUSH1 0x1 PUSH1 0x20 MSTORE PUSH1 0x40 SWAP1 KECCAK256 SLOAD ISZERO ISZERO SWAP1 JUMP JUMPDEST PUSH1 0x40 MLOAD SWAP1 ISZERO ISZERO DUP2 MSTORE PUSH1 0x20 ADD JUMPDEST PUSH1 0x40 MLOAD DUP1 SWAP2 SUB SWAP1 RETURN JUMPDEST PUSH1 0x0 SLOAD PUSH2 0xA4 SWAP1 PUSH1 0x1 PUSH1 0x1 PUSH1 0xA0 SHL SUB AND DUP2 JUMP JUMPDEST PUSH1 0x40 MLOAD PUSH1 0x1 PUSH1 0x1 PUSH1 0xA0 SHL SUB SWAP1 SWAP2 AND DUP2 MSTORE PUSH1 0x20 ADD PUSH2 0x88 JUMP JUMPDEST PUSH2 0x7C PUSH2 0xCA CALLDATASIZE PUSH1 0x4 PUSH2 0x264 JUMP JUMPDEST PUSH2 0xF1 JUMP JUMPDEST PUSH2 0x7C PUSH2 0xDD CALLDATASIZE PUSH1 0x4 PUSH2 0x242 JUMP JUMPDEST PUSH1 0x0 SLOAD PUSH1 0x1 PUSH1 0x1 PUSH1 0xA0 SHL SUB SWAP2 DUP3 AND SWAP2 AND EQ SWAP1 JUMP JUMPDEST PUSH1 0x0 DUP1 SLOAD PUSH1 0x1 PUSH1 0x1 PUSH1 0xA0 SHL SUB AND CALLER EQ PUSH2 0x109 JUMPI PUSH1 0x0 DUP1 REVERT JUMPDEST PUSH1 0x1 PUSH1 0x1 PUSH1 0xA0 SHL SUB DUP4 AND PUSH1 0x0 SWAP1 DUP2 MSTORE PUSH1 0x1 PUSH1 0x20 MSTORE PUSH1 0x40 SWAP1 KECCAK256 SLOAD ISZERO PUSH2 0x1A3 JUMPI PUSH1 0x40 DUP1 MLOAD PUSH1 0x0 DUP2 MSTORE PUSH1 0x20 DUP2 ADD DUP5 SWAP1 MSTORE PUSH1 0x1 PUSH1 0x1 PUSH1 0xA0 SHL SUB DUP6 AND DUP2 DUP4 ADD MSTORE PUSH1 0x80 PUSH1 0x60 DUP3 ADD DUP2 SWAP1 MSTORE PUSH1 0x13 SWAP1 DUP3 ADD MSTORE PUSH19 0x185B1B1C9958591E481C9959DA5CDD195C9959 PUSH1 0x6A SHL PUSH1 0xA0 DUP3 ADD MSTORE SWAP1 MLOAD PUSH32 0x3A5E9CF671F12108422B0B314D2755338A4779C3F3D01AE983F8E6A19970B085 SWAP2 DUP2 SWAP1 SUB PUSH1 0xC0 ADD SWAP1 LOG1 POP PUSH1 0x0 PUSH2 0x220 JUMP JUMPDEST PUSH1 0x1 PUSH1 0x1 PUSH1 0xA0 SHL SUB DUP4 AND PUSH1 0x0 DUP2 DUP2 MSTORE PUSH1 0x1 PUSH1 0x20 DUP2 DUP2 MSTORE PUSH1 0x40 SWAP3 DUP4 SWAP1 KECCAK256 DUP7 SWAP1 SSTORE DUP3 MLOAD SWAP2 DUP3 MSTORE DUP2 ADD DUP6 SWAP1 MSTORE DUP1 DUP3 ADD SWAP3 SWAP1 SWAP3 MSTORE PUSH1 0x80 PUSH1 0x60 DUP4 ADD DUP2 SWAP1 MSTORE PUSH1 0x6 SWAP1 DUP4 ADD MSTORE PUSH6 0x1CDD1BDC9959 PUSH1 0xD2 SHL PUSH1 0xA0 DUP4 ADD MSTORE MLOAD PUSH32 0x3A5E9CF671F12108422B0B314D2755338A4779C3F3D01AE983F8E6A19970B085 SWAP2 DUP2 SWAP1 SUB PUSH1 0xC0 ADD SWAP1 LOG1 POP PUSH1 0x1 JUMPDEST SWAP3 SWAP2 POP POP JUMP JUMPDEST DUP1 CALLDATALOAD PUSH1 0x1 PUSH1 0x1 PUSH1 0xA0 SHL SUB DUP2 AND DUP2 EQ PUSH2 0x23D JUMPI PUSH1 0x0 DUP1 REVERT JUMPDEST SWAP2 SWAP1 POP JUMP JUMPDEST PUSH1 0x0 PUSH1 0x20 DUP3 DUP5 SUB SLT ISZERO PUSH2 0x254 JUMPI PUSH1 0x0 DUP1 REVERT JUMPDEST PUSH2 0x25D DUP3 PUSH2 0x226 JUMP JUMPDEST SWAP4 SWAP3 POP POP POP JUMP JUMPDEST PUSH1 0x0 DUP1 PUSH1 0x40 DUP4 DUP6 SUB SLT ISZERO PUSH2 0x277 JUMPI PUSH1 0x0 DUP1 REVERT JUMPDEST PUSH2 0x280 DUP4 PUSH2 0x226 JUMP JUMPDEST SWAP5 PUSH1 0x20 SWAP4 SWAP1 SWAP4 ADD CALLDATALOAD SWAP4 POP POP POP JUMP INVALID LOG2 PUSH5 0x6970667358 0x22 SLT KECCAK256 ADD 0xDE 0xE7 0xFB INVALID 0xE7 0x5D GAS SHL 0xC 0xB9 PUSH25 0xC5C41ED07AF9C97316F1335F8C767B742AF5621964736F6C63 NUMBER STOP ADDMOD SMOD STOP CALLER ",
  "sha1": "8176899da93f00441f368732a340248c63b87157",
  "source": "// SPDX-License-Identifier: MIT\npragma solidity >=0.7.0 <0.9.0;\n\nimport \"./RegistryAuthorization.sol\";\n\n// this contract provides issuer data for registry smart contract\n\ncontract IssuerHandler is RegistryAuthorization {\n    event IsSuccess(\n        bool value,\n        bytes32 hashData,\n        address issuer,\n        string message\n    );\n\n    function registerIssuer(address issuer, bytes32 _hashData)\n        public\n        grantAccess\n        returns (bool success)\n    {\n        if (checkIssuerExist(issuer)) {\n            emit IsSuccess(\n                false,\n                _hashData,\n                issuer,\n                \"allready registered\"\n            );\n            return false;\n        }\n        issuerMapping[issuer] = _hashData;\n        emit IsSuccess(true, _hashData, issuer, \"stored\");\n        return true;\n    }\n\n    function checkIssuerExist(address _address) public view returns (bool) {\n        return issuerMapping[_address] > 0;\n    }\n}\n",
  "sourcePath": "contracts/Registry/IssuerHandler.sol",
  "type": "contract"
}