{
  "abi": [
    {
      "inputs": [],
      "stateMutability": "payable",
      "type": "constructor"
    },
    {
      "inputs": [
        {
          "internalType": "address",
          "name": "_address",
          "type": "address"
        }
      ],
      "name": "checkIsRegulator",
      "outputs": [
        {
          "internalType": "bool",
          "name": "",
          "type": "bool"
        }
      ],
      "stateMutability": "view",
      "type": "function"
    },
    {
      "inputs": [],
      "name": "owner",
      "outputs": [
        {
          "internalType": "address payable",
          "name": "",
          "type": "address"
        }
      ],
      "stateMutability": "view",
      "type": "function"
    }
  ],
  "bytecode": "6080604052600080546001600160a01b0319163317905560f8806100246000396000f3fe6080604052348015600f57600080fd5b506004361060325760003560e01c80638da5cb5b146037578063def0f694146066575b600080fd5b6000546049906001600160a01b031681565b6040516001600160a01b0390911681526020015b60405180910390f35b608560713660046094565b6000546001600160a01b0391821691161490565b6040519015158152602001605d565b60006020828403121560a557600080fd5b81356001600160a01b038116811460bb57600080fd5b939250505056fea264697066735822122076f7247498d590289115b075766035d7d9edb7aad51a82e5f89d1107313ca1ca64736f6c63430008070033",
  "bytecodeSha1": "ff09eea2e1005cd6a6951b88160baba73c70ae51",
  "compiler": {
    "evm_version": "istanbul",
    "optimizer": {
      "enabled": true,
      "runs": 200
    },
    "version": "0.8.7+commit.e28d00a7"
  },
  "contractName": "RegistryAuthorization",
  "language": "Solidity",
  "natspec": {
    "kind": "dev",
    "methods": {},
    "version": 1
  },
  "opcodes": "PUSH1 0x80 PUSH1 0x40 MSTORE CALLVALUE DUP1 ISZERO PUSH1 0xF JUMPI PUSH1 0x0 DUP1 REVERT JUMPDEST POP PUSH1 0x4 CALLDATASIZE LT PUSH1 0x32 JUMPI PUSH1 0x0 CALLDATALOAD PUSH1 0xE0 SHR DUP1 PUSH4 0x8DA5CB5B EQ PUSH1 0x37 JUMPI DUP1 PUSH4 0xDEF0F694 EQ PUSH1 0x66 JUMPI JUMPDEST PUSH1 0x0 DUP1 REVERT JUMPDEST PUSH1 0x0 SLOAD PUSH1 0x49 SWAP1 PUSH1 0x1 PUSH1 0x1 PUSH1 0xA0 SHL SUB AND DUP2 JUMP JUMPDEST PUSH1 0x40 MLOAD PUSH1 0x1 PUSH1 0x1 PUSH1 0xA0 SHL SUB SWAP1 SWAP2 AND DUP2 MSTORE PUSH1 0x20 ADD JUMPDEST PUSH1 0x40 MLOAD DUP1 SWAP2 SUB SWAP1 RETURN JUMPDEST PUSH1 0x85 PUSH1 0x71 CALLDATASIZE PUSH1 0x4 PUSH1 0x94 JUMP JUMPDEST PUSH1 0x0 SLOAD PUSH1 0x1 PUSH1 0x1 PUSH1 0xA0 SHL SUB SWAP2 DUP3 AND SWAP2 AND EQ SWAP1 JUMP JUMPDEST PUSH1 0x40 MLOAD SWAP1 ISZERO ISZERO DUP2 MSTORE PUSH1 0x20 ADD PUSH1 0x5D JUMP JUMPDEST PUSH1 0x0 PUSH1 0x20 DUP3 DUP5 SUB SLT ISZERO PUSH1 0xA5 JUMPI PUSH1 0x0 DUP1 REVERT JUMPDEST DUP2 CALLDATALOAD PUSH1 0x1 PUSH1 0x1 PUSH1 0xA0 SHL SUB DUP2 AND DUP2 EQ PUSH1 0xBB JUMPI PUSH1 0x0 DUP1 REVERT JUMPDEST SWAP4 SWAP3 POP POP POP JUMP INVALID LOG2 PUSH5 0x6970667358 0x22 SLT KECCAK256 PUSH23 0xF7247498D590289115B075766035D7D9EDB7AAD51A82E5 0xF8 SWAP14 GT SMOD BALANCE EXTCODECOPY LOG1 0xCA PUSH5 0x736F6C6343 STOP ADDMOD SMOD STOP CALLER ",
  "sha1": "eb361377a1552dd944f64fd6357b4d1a67df863e",
  "source": "// SPDX-License-Identifier: MIT\npragma solidity >=0.7.0 <0.9.0;\n\n// this contract provides authorization for registry smart contract\n\n\ncontract RegistryAuthorization {\n\n    address payable public owner;\n    \n    mapping (address=>bytes32) issuerMapping;\n\n    constructor() payable {\n        owner = payable(msg.sender);\n    }\n\n    //grant authorization only for authorize user to perform issuer registration. \n    modifier grantAccess{\n        require(msg.sender == owner);\n        _;\n    }\n\n\n    // function registerAuthorizeUser(address _address) public grantAccess returns(bool success) {\n    //     if(!(authorize_user[_address]==true)){\n    //         authorize_user[_address] = true;\n    //         return true;\n    //     }else{\n    //         return false;\n    //     }\n    // }\n\n    function checkIsRegulator(address _address)  public view returns (bool){\n         return _address == owner;\n    }\n}",
  "sourcePath": "contracts/Registry/RegistryAuthorization.sol",
  "type": "contract"
}